:0300000002135098
:0C135000787FE4F6D8FD75812002139729
:0C000300000000000000000000000000F1
:0B177800EF1FAC0670011E4C70F62243
:1016E700AB07AA06EB1BAE0270011A4E60097FAA70
:0816F7007E0512177880ED2238
:1010B700907120E04480F07F057E00121778E4FFEE
:1010C700FE1216E775A75575AC589071327450F03B
:1010D7009071307403F0907136742FF07F18EF24FD
:1010E70066FDE434718D82F583E4F00FEFB433EEDF
:1010F700904011E4935407FF90711CE054F84FF0AF
:10110700904017E493547FFF90711DE054804FF097
:10111700904010E493FF5401C43333335480FE905E
:101127007123E0547F4EF0EFC313543F4440FFA3B5
:10113700E054804FF0904012E493FF540FFE9071FB
:1011470046E054F04EF0EFC4540FFF90714FE05457
:10115700F04FF0904013E493543FFF907140E054F8
:10116700C04FF0904014E493907126F0904015E43E
:0E11770093907128F0904016E49390712AF046
:011185002247
:0E159200446046428C000044604200000000AD
:100FC60075D9DD1210B712000F1216CC12149B122F
:100FD60015D6C294E4906052F0A3F0906052E0FE01
:100FE600A3E0FFC39470EE941740030210AC3003E5
:100FF600030210ACC3EF9470EE94174003021089FD
:10100600E4FFFE7D807CBF906046E0F8A3E0F9A394
:10101600E0FAA3E0FB12002BE4FBFA79A87842126F
:101026000225E4FBFA798078BF12002B90604A1201
:101036000681906046E0FCA3E0FDA3E0FEA3E0FF8E
:10104600E4FBFAF9783F12002B9060461206819075
:10105600604AE0FCA3E0FDA3E0FEA3E0FF9060355C
:101066001206817F007E007DA07C40120988E4FB89
:10107600FA7970784212011C1202C2906052EEF0A8
:10108600A3EFF0C3906053E09470906052E0941721
:1010960040077417F0A37470F01217277F107E00B4
:1010A6001216E7020FE1120EAC12118612143C80E2
:0110B600F544
:0E15A00042605200004260541770C103C10443
:10149B007812E24401F278567407F278277417F247
:1014AB0018746FF27833E4F218F27819E24401F20F
:1014BB007811E24401F27817E24401F27812E24427
:1014CB0001F27814E24401F27818E24401F278D385
:1014DB00E254CFF2E24410F2E254FCF2E24401F2A5
:0C14EB0090718AE4F090718C740AF02279
:10172700906052E07833F2A3E018F27817E24401B0
:02173700F2229C
:1013DC00D3EF94B7EE9405401C90605430020B741C
:1013EC000BF0A374B8F0C20480377417F0A37470B8
:1013FC00F0D204802CC3EF94B7EE94055023906088
:10140C0054740BF0A374B8F0C204906054E0FCA3C5
:10141C00E0FDC3906053E09D906052E09C4002D28E
:0F142C0003D3EF94B7EE940D4003D29422C294F1
:01143B00228E
:10143C00E4906031F0A3F0A312068D000000007F51
:10144C000212154CE4906031F0120AEEE4FCFD90AF
:10145C006033120681E47FB77E0DFDFC906033E0B3
:10146C00F8A3E0F9A3E0FAA3E0FBC31206314006AF
:10147C00906032E004F0906031E004F0E0C3940A34
:0E148C0040C7906032E0B40A03D29422C294AA
:01149A00222F
:10173900906054E0FFA3E0906052CFF0A3EFF00275
:02174900172760
:1015AE004260070000416005004160040041600692
:0A15BE00004260000000C100C101FE
:050C5000906036EDF09C
:100C5500E4A3F0A3F0A3F0A3F0906037F0A3F09025
:100C65006036E024FFFFE434FFFEC3906038E09F68
:100C7500EE6480F8906037E06480984003020D824E
:100C8500E4906039F0A3F0906036E024FFFFE4348F
:100C9500FFFEA3E0FCA3E0FDC3EF9DFFEE9CFEA3DA
:100CA500E0FCA3E0FDC39FEE6480F8EC648098400F
:100CB50003020D6EED2401FFE43CFEEF25E0FFEE9F
:100CC500338F82F5831204A1FDACF090603AE025E4
:100CD500E0FF906039E0338F82F5831204A1D39D44
:050CE500E5F09C4070E9
:100CEA00906039E0FCA3E0FD25E0FFEC338F82F54C
:100CFA00831204A1FF90603BE5F0F0A3EFF0ED242E
:100D0A0001FFE43CFEEF25E0FFEE338F82F583120C
:100D1A0004A1FD90603AE025E0FF906039E0338F4E
:100D2A0082F583E5F08DF01204D990603BE0FCA3D4
:100D3A00E0FD90603AE02401FF906039E03400FE63
:100D4A00EF25E0FFEE338F82F583EC8DF01204D9A4
:100D5A0090603AE004F06003020C8C906039E00481
:100D6A00F0020C8C906038E004F06003020C64908E
:080D7A006037E004F0020C6494
:010D8200224E
:0D000F0078F2E24403F278E3E244C0F2220A
:10154C00E4906002F0A3F0EF24FE60190470309078
:10155C007123E054F8F0E0441EF09071227407F00F
:10156C007599188014907123E054D8F0E0441DF064
:10157C009071227407F07599177869E24448F27FEC
:06158C00017E000216E7DB
:10167B007869E24401F2786BE230E1FAAF93EF75EF
:10168B00F010A4FFE594C4540FFDEF4DFF906002E2
:0A169B00E5F0F0A3EFF07402F22274
:100AEE00E4906037F0A3F0A3F090603A12068D0008
:100AFE00000000E490603EF0A3F074FF906040F0C0
:100B0E00A3F0E4906037F07869E24401F2786BE28A
:100B1E0030E1FAAF93EF75F010A4FFE594C4540FD3
:100B2E00FDEF4DFF906038E5F0F0A3EFF07402F2A8
:100B3E00906037E0C39402406D90603EE0FEA3E00B
:100B4E00FFD3906039E09F906038E09E400CE0FF4C
:100B5E00A3E090603ECFF0A3EFF0906040E0FEA3E4
:100B6E00E0FFC3906039E09F906038E09E500CE04B
:100B7E00FFA3E0906040CFF0A3EFF090603AE0F872
:100B8E00A3E0F9A3E0FAA3E0FB906038E0FEA3E057
:100B9E00FFE4FCFDEB2FFFEA3EFEED39FDEC38FCE9
:100BAE0090603A120681906037E004F0E0641460C1
:100BBE0003020B1590603AE0FCA3E0FDA3E0FEA358
:100BCE00E0FFC006C00790603EE0FEA3E0FBAA0671
:100BDE00D007D006C3EF9BFFEE9AFEED9400FDEC1E
:100BEE009400FC90603A12068190603AE0FCA3E01B
:100BFE00FDA3E0FEA3E0FFC006C007906040E0FE4C
:100C0E00A3E0FBAA06D007D006C3EF9BFFEE9AFE29
:100C1E00ED9400FDEC9400FC90603A120681906019
:100C2E003AE0FCA3E0FDA3E0FEA3E0FF7804120689
:100C3E0042906038EEF0A3EFF0906038E0FEA3E053
:010C4E00FFA6
:010C4F002282
:1016A5007E007F147D007B017A60791D1206BEE401
:1016B500906005F0FE7F14FD7B017A6079091206C2
:0716C500BEE4906004F02276
:1006EA007869E24401F2786BE230E1FA7402F2AF1F
:1006FA0093EF75F010A4FFE594C4540FFDEF4DFF7E
:09070A00906002E5F0F0A3EFF0AD
:10071300906002E0FFA3E0906031CFF0A3EFF0E43C
:10072300A3F0906001E025E0F0906000E033F090EA
:100733006031E0FEA3E0FFC39449EE940A4010D376
:0F074300EF9455EE940D5007906001E04401F0E3
:10075200E4906034F0906034E0FFC3940850249039
:100762006000E0FEA3E0A807088005CEC313CE1305
:10077200D8F930E006906033E004F0906034E00491
:03078200F080D232
:10078500906033E0FFC394034004D2028005EF700C
:0307950002C2029B
:10079800906007E0FEA3E0FFC3906003E09FFD9038
:1007A8006002E09EFCD3ED9475EC94005015E0FCDB
:1007B800A3E0FDC3EF9DFFEE9CFED3EF9475EE948E
:1007C800004024906002E0FEA3E0FF906005E02571
:1007D800E0241DF582E43460F583EEF0A3EFF09099
:1007E8006005E004F08036906002E0FEA3E0FF9030
:1007F8006004E025E02409F582E43460F583EEF036
:10080800A3EFF0906004E004F07E007F147D007B8D
:10081800017A60791D1206BEE4906005F0906004CC
:09082800E0C3940A50030208D059
:1008310090603112068D00000000E4906035F0FEFA
:100841007F14FD7B017A60791D1206BEE49060057C
:10085100F07B017A6079097D0A120C509060357441
:1008610001F0906031E0F8A3E0F9A3E0FAA3E0FB26
:10087100A3E025E02409F582E43460F583E0FEA3DA
:10088100E0FFE4FCFDEB2FFFEA3EFEED39FDEC3825
:10089100FC906031120681906035E004F0E0B4090B
:1008A100C1906031E0FCA3E0FDA3E0FEA3E0FF788E
:1008B10003120642906007EEF0FAA3EFF0FB90609E
:0C08C1003112068D00000000E49060047D
:0F08CD00020978906005E0C3940A500302098085
:1008DC0090603112068D00000000E4906035F0FE4F
:1008EC007F14FD7B017A6079091206BEE4906004E6
:1008FC00F07B017A60791D7D0A120C509060357482
:10090C0001F0906031E0F8A3E0F9A3E0FAA3E0FB7A
:10091C00A3E025E0241DF582E43460F583E0FEA31A
:10092C00E0FFE4FCFDEB2FFFEA3EFEED39FDEC3879
:10093C00FC906031120681906035E004F0E0B4095F
:10094C00C1906031E0FCA3E0FDA3E0FEA3E0FF78E2
:10095C0003120642906007EEF0FAA3EFF0FB9060F2
:10096C003112068D00000000E4906005F0AF03AE7C
:04097C00021213DC74
:08098000E4906002F0A3F022F4
:1012BD00E4906036F0A312068D00000000E490600B
:1012CD0036F012167B906037E0F8A3E0F9A3E0FA50
:1012DD00A3E0FB906002E0FEA3E0FFE4FCFDEB2F3A
:1012ED00FFEA3EFEED39FDEC38FC906037120681C9
:1012FD00906036E0C394014017A3E0FCA3E0FDA38A
:10130D00E0FEA3E0FF7801120642906037120681DD
:10131D007F147E001216E7906036E004F0E0C3946F
:10132D0003409FE47F0CFEFDFC906037E0F8A3E0E6
:10133D00F9A3E0FAA3E0FB120506E47B0AFAF9F83B
:03134D0002059105
:100EAC0090603112068D00000000906006E0640234
:100EBC007003020FC5E4906002F0A3F07F011215DD
:100ECC004C1212BD906031120681906006E0705F8A
:100EDC007FEA7E0BFDFC906031E0F8A3E0F9A3E023
:0A0EEC00FAA3E0FBC31206315045E3
:100EF600E4906035F0F01212BD906031120681E484
:100F06007FEA7E0BFDFC906031E0F8A3E0F9A3E0F8
:100F1600FAA3E0FBD31206314006E4906006F02205
:100F2600906035E004F0E0C3940A40CA906006740D
:050F360001F00216A508
:0B0F3B00906006E064016003020FC537
:100F460020000FD20090605612068D00000000129D
:100F5600175BE47F307E75FDFC906056E0F8A3E0F9
:0D0F6600F9A3E0FAA3E0FBC31206314052EC
:100F7300E4906035F0F01212BD906031120681E406
:100F83007FEA7E0BFDFC906031E0F8A3E0F9A3E07B
:100F9300FAA3E0FBD312063140079060067401F018
:100FA30022906035E004F0E0C3940A40C9906006E3
:100FB3007402F012171390605612068D00000000A1
:020FC300C2006A
:010FC5002209
:10118600906006E07038200105D20112174B200549
:1011960003021222C205E4906002F0A3F07F02125D
:1011A600154C1206EA906054E0FEA3E0FF906052F0
:1011B600E06E7003A3E06F606312173980E79060FA
:1011C60006E0B401281216FFC201906054740BF0B9
:1011D600A374B8F0906054E0FEA3E0FF906052E084
:1011E6006E7003A3E06F603412173980E7906006D3
:1011F600E0B402281216FFC2019060547405F0A3F1
:1012060074DCF0906054E0FEA3E0FF906052E06E64
:0C1216007003A3E06F600512173980E739
:0112220022A9
:0615C80041605D00C10559
:1016CC0043A820D2AF75D10178957401F2187476C5
:0B16DC00F2789174A0F21874FDF22265
:10174B007890E2541FF2E244C0F243A820D2AF22B9
:1016FF007890E2541FF2E244A0F27892E4F208F2FA
:04170F0053A8DF22DA
:03001E000216497E
:10164900C0E0C083C082C0D075D000C0007891E2EC
:1016590030E714E24480F290605DE004F0E0C39466
:10166900194004E4F0D205D000D0D0D082D083D084
:02167900E0325D
:0D176B00E5F430E4FB8FF7E5F430E4FB22F9
:01001C0022C1
:1016160090605AEBF0A3EAF0A3E9F090605AE0FB81
:10162600A3E0FAA3E0F9120472601790605AA3E4EB
:1016360075F00112048BA9F0FA120472FF12176BEF
:0316460080D92226
:0715CE00446056000000001C
:1015D600E5B154CF42B1789CE254E3F2E24414F20E
:1015E600E254FCF2E24401F208E24480F2E24420D2
:1015F600F278A1743BF2187460F2789EE4F208F275
:10160600789CE2541FF2E244A0F253A8BFD2AF2264
:10175B00789CE2541FF2E244C0F243A840D2AF227D
:10171300789CE2541FF2E244A0F2789EE4F208F2CD
:0417230053A8BF22E6
:030021000214F7CF
:1014F700C0E0C0F0C083C082C0D075D000C000C0BB
:1015070004C005C006C007789DE230E723E24480A7
:10151700F2906056E0FCA3E0FDA3E0FEA3E0240107
:10152700FFE43EFEE43DFDE43CFC9060561206817C
:10153700D007D006D005D004D000D0D0D082D08339
:05154700D0F0D0E032FD
:1000240002032EE86480F8E933E83360110460F0D9
:10003400ED33EC337009E8FCE9FDEAFEEBFF220442
:1000440060DED3EB9FEA9EE99DE8C2E78CF0C2F73D
:1000540095F0400CE8CCF8E9CDF9EACEFAEBCFFB09
:100064001202F985D0F05804700320D5B3E8047067
:10007400075002B2D502033892D5EC0460F7E4CC01
:10008400C0E0C398F8603B94186008400DD0E0FBD2
:10009400020310E4FBFAC9FC8028E830E406E4C952
:1000A400FBE4CAFCE830E305E4C9CACBFCE8540726
:1000B4006010F8C3E913F9EA13FAEB13FBEC13FC31
:1000C400D8F130F52FC3E49CFCEF9BFFEE9AFEEDD4
:1000D40099FDD0E0FBEF4E4D4C701222DB0302037E
:1000E40035EC2CFCEF33FFEE33FEED33FDED30E762
:1000F400EB020310EF2BFFEE3AFEED39FDD0E0FBEF
:1001040050130BBB0003020338ED13FDEE13FEEF97
:0801140013FFEC13FC020310C1
:10011C00EC4D6011E8497017ED33EC3304600DE4DD
:10012C00FCFFFEFD22E933E8330470F802032E12C3
:10013C0002F958046009E4CC2481500628500902C5
:10014C000338284003020335C0E0EB4A7044B98001
:10015C0006D0E0FB020324EF4E701CBD8008EBFFC1
:10016C00EAFEE9FD80EBE98DF0A4FEE5F002020564
:10017C00E9CDF9EAFEEBFFEF89F0A4FCE5F0CE89BE
:10018C00F0A42EFFE435F0CD89F0A42DFEE435F07B
:10019C008067EF4E7005BD80D780C3EF8BF0A4ACA9
:1001AC00F0EE8BF0A42CFCE435F0F8EF8AF0A42CE4
:1001BC00E5F038FCE433CB8DF0A42CFCE5F03BF8F7
:1001CC00EE8AF0A42CFCE5F038F8E433CF89F0A4E7
:1001DC002CFCE5F038CF3400CE89F0A42FFFE5F0ED
:1001EC003EFEE433C98DF0A42EFEE5F039CD8AF045
:1001FC00A42FFFE5F03EFEE43DFD33D0E0FB5007BD
:10020C000BBB000F020338EC2CFCEF33FFEE33FE7C
:06021C00ED33FD020310AA
:10022200020338EC5D046005E85904700302032EF2
:100232001202F9580460F6EC4860F2EC7004FDFE1C
:10024200FF22C860DB2481C85009C39860025006AF
:100252000203359850CAF582E9294B4A7005AB82F0
:1002620002032475F0007C1A7880C3EF9BEE9AEDAE
:1002720099400DC3EF9BFFEE9AFEED99FDE842F027
:10028200DC23ACF0D0E0FFD0E0FED0E0FDAB82207A
:10029200E7101BEB60BAEC2CFCEF33FFEE33FEED04
:1002A20033FD020310E803F830E705C0F075F000F3
:1002B200EF2FFFEE33FEED33FD40B830E7C280AAE8
:1002C200EDD2E7CD33EC3392D524814006E4FFFE34
:1002D200FDFC22FCE4CFCECDCC24E0501174FF8093
:1002E200EDC3CC13CCCD13CDCE13CECF13CF047030
:0702F200F030D5DE02062307
:10098800906031120681E4FFFE7D807C3F906031EB
:10099800E0F8A3E0F9A3E0FAA3E0FB12035D700618
:1009A800906031020AE2906031E0FCA3E0FDA3E030
:1009B800FEA3E0FF120343FBA3E0FCA3E0FDA3E0DA
:1009C800FEA3E0FF120343FFB40108E4FFFE7D80AD
:1009D8007C3F22EF64046029EB64046024EBB401DB
:1009E80030E4FFFEFDFC906035E0F8A3E0F9A3E0F9
:1009F800FAA3E0FB12035D60084006E4FFFEFDFC7D
:100A08002290603512068DFFFFFFFF906035020AC5
:100A1800E2E4906039F0A3F0FFFEFDFC906031E065
:100A2800F8A3E0F9A3E0FAA3E0FB12035D505F909E
:100A38006035E0FCA3E0FDA3E0FEA3E0FF1202C2E4
:100A4800906039EEF0A3EFF0FDCCEECCEC1203ECA5
:100A5800C8ECC8C9EDC9CAEECACBEFCB906035E087
:100A6800FCA3E0FDA3E0FEA3E0FF120027E4FBFAED
:100A7800F9F812035D708A906031E0FCA3E0FDA3F1
:100A8800E0FEA3E0FF1203D6906031120681906069
:100A980031E0FCA3E0FDA3E0FEA3E0FF120DB79058
:100AA8006035E0F8A3E0F9A3E0FAA3E0FB12011C2B
:100AB80012125B90603512068190603AE030E017C0
:100AC800906035E0FCA3E0FDA3E0FEA3E0FF120385
:100AD800D6906035120681906035E0FCA3E0FDA356
:060AE800E0FEA3E0FF2286
:1002F900E9D2E7C933E833F892D5EDD2E7CD33EC4B
:0703090033FC5002B2D522C3
:10031000EC30E7100FBF000C0EBE00080DBD00044E
:100320000BEB6014A2D5EB13FCED92E7FD2274FFFA
:10033000FCFDFEFF22E480F8A2D574FF13FC7D8053
:03034000E480EF67
:10034300ED33EC33601004700FED547F70057402CD
:0A03530092E0227404220422E42246
:10035D0074F8CC6480CCC86480C8F58204604FC347
:10036D00EB9FF5F0EA9E42F0E99D42F0E89C45F0E6
:10037D00603C501DE5825FFFE582D313CB5BCBF470
:10038D002B5582FB50280ABA002409B90020088099
:10039D001DE5825BFBE582D313CF5FCFF4C3132F33
:1003AD005582FF50090EBE00050DBD00010CC3EBBB
:1003BD009FF5F0EA9E42F0E99D42F0E89C45F06021
:0903CD0007CC4820E701B3EC2243
:1003D600ED33EC33600A047003BD8004ECB2E7FC35
:0103E60022F4
:1003E70075F020800E75F010800575F0087D007E91
:1003F700007F003392D530D503120623EC3340102B
:10040700EF33FFEE33FEED33FDEC33FCD5F0ED2299
:0E041700E5F0247EA2D513CC92E7CDCEFF22D5
:1012230033DA929E35B16011377FE5FE3921848927
:101233003AAEC3FF3C1D955B3D6358473E75FDF0D9
:101243003F3172183F800000C2D502033802032EDB
:10125300BD80FA50F3020335ED33EC330460F17BC8
:101263003B7AAA79B8783F12011CED33EC3392D55F
:10127300247B5011A2D570DB500BED448024045025
:1012830004A2D580CEEFFBEEFAEDF9ECF81202C220
:10129300EFF582F404FC1203F112002BC0829012CA
:1012A300237409120434ED33CC33D0F092D525F0F6
:0A12B300A2D57001C313CC13FD2275
:100D83003E9248DA3ECCCCCD3F2AAAAB40000000CD
:100D93003F8000003F9837F03FB504F33FD744FC52
:100DA3003E3172173EB172173F0515913EDE5BD996
:100DB300D2068002C206EDD2E7F8CD33EC330470DD
:100DC3000BBD800592D502033802032E40FBD314DA
:100DD30060F2F5F07C3FEE7A00C39496C8948B40A2
:100DE300230AC89469C8941A401A0AC89468C89414
:100DF3001F40110AC8945AC89425400805F07A0088
:100E0300CDC2E7CDC0F090603B120681EA2323C038
:100E1300E02493F582E4340DF58312067112002B5E
:100E2300ECC0E0EDC0E0EEC0E0EFC0E0120655908C
:100E3300603B120665120027D0E0FBD0E0FAD0E059
:100E4300F9D0E0B2E7F812022590603B12068190D8
:100E53000D83740312042590603B12066512011C76
:100E6300D0E0600F249FF582E4340DF58312067100
:100E730012002B90603B120681D0E0C3947FFDE407
:100E83009400FC1203EC7B187A727931783F1201DB
:100E93001C90603B12066512002B30060B7BD97A3F
:090EA3005B79DE783E12011C228D
:10042500C0E0EFFBEEFAEDF9ECF812011CD0E0F5B7
:10043500F0EFFBEEFAEDF9ECF8120655A3A3A3A332
:10044500E8C0E0E9C0E0EAC0E0EBC0E0C0F01201BE
:100455001C120671A3A3A3A312002BD0F0D0E0FBBE
:0D046500D0E0FAD0E0F9D0E0F8D5F0D422D4
:10135C00020FC6E493A3F8E493A34003F68001F2D2
:10136C0008DFF48029E493A3F85407240CC8C33392
:10137C00C4540F4420C8834004F456800146F6DF61
:10138C00E4800B0102040810204080901592E47E4A
:10139C00019360BCA3FF543F30E509541FFEE49356
:1013AC00A360010ECF54C025E060A840B8E493A31D
:1013BC00FAE493A3F8E493A3C8C582C8CAC583CA48
:1013CC00F0A3C8C582C8CAC583CADFE9DEE780BE00
:0115D5000015
:10047200BB010689828A83E0225002E722BBFE0288
:09048200E32289828A83E49322BB
:10048B00A3F8E0C5F025F0F0E58215827002158324
:06049B00E0C838F0E82281
:1004A100BB0110E58229F582E5833AF583E0F5F099
:1004B100A3E0225009E92582F886F008E622BBFE76
:1004C1000AE92582F8E2F5F008E222E5832AF583BC
:0804D100E993F5F0A3E9932281
:1004D900F8BB0111E58229F582E5833AF583E8F055
:1004E900E5F0A3F0225009E92582C8F608A6F02212
:0D04F900BBFE09E92582C8F2E5F008F222F9
:10050600E88FF0A4CC8BF0A42CFCE98EF0A42CFC94
:100516008AF0EDA42CFCEA8EF0A4CDA8F08BF0A412
:100526002DCC3825F0FDE98FF0A42CCD35F0FCEB71
:100536008EF0A4FEA9F0EB8FF0A4CFC5F02ECD3936
:0F054600FEE43CFCEAA42DCE35F0FDE43CFC22A3
:1005550075F008758200EF2FFFEE33FECD33CDCC5D
:1005650033CCC58233C5829BED9AEC99E5829840E0
:100575000CF582EE9BFEED9AFDEC99FC0FD5F0D6BD
:10058500E4CEFBE4CDFAE4CCF9A88222B800C1B9E7
:100595000059BA002DEC8BF084CFCECDFCE5F0CB25
:1005A500F97818EF2FFFEE33FEED33FDEC33FCEB5E
:1005B50033FB10D703994004EB99FB0FD8E5E4F919
:1005C500FA227818EF2FFFEE33FEED33FDEC33FC06
:1005D500C933C910D7059BE99A4007EC9BFCE99AFA
:1005E500F90FD8E0E4C9FAE4CCFB2275F010EF2F3F
:1005F500FFEE33FEED33FDCC33CCC833C810D7073F
:100605009BEC9AE899400AED9BFDEC9AFCE899F879
:0E0615000FD5F0DAE4CDFBE4CCFAE4C8F9220C
:0E062300C3E49FFFE49EFEE49DFDE49CFC22E8
:10063100EB9FF5F0EA9E42F0E99D42F0E89C45F01F
:010641002296
:10064200E8600FECC313FCED13FDEE13FEEF13FF96
:03065200D8F122BA
:10065500E493FC740193FD740293FE740393FF22EB
:0C066500E0F8A3E0F9A3E0FAA3E0FB2218
:10067100E493F8740193F9740293FA740393FB22DF
:0C068100ECF0A3EDF0A3EEF0A3EFF022EC
:10068D00A8828583F0D083D0821206A41206A4120C
:10069D0006A41206A4E473E493A3C583C5F0C58331
:1006AD00C8C582C8F0A3C583C5F0C583C8C582C8B7
:0106BD00221A
:1006BE00EF4E6012EF60010EEDBB010B89828A8353
:1006CE00F0A3DFFCDEFA2289F05007F709DFFCA960
:0C06DE00F022BBFEFCF309DFFCA9F022B7
:00000001FF
