:03000000021242A7
:0C124200787FE4F6D8FD75812002128947
:0C000300000000000000000000000000F1
:0B165200EF1FAC0670011E4C70F6226A
:1015D300AB07AA06EB1BAE0270011A4E60097FAA85
:0815E3007E0512165280ED2274
:100EF800907120E04480F07F057E00121652E4FFD6
:100F0800FE1215D375A75575AC589071327450F010
:100F18009071307403F0907136742FF07F18EF24BD
:100F280066FDE434718D82F583E4F00FEFB433EE9F
:100F3800904011E4935407FF90711CE054F84FF06F
:100F4800904017E493547FFF90711DE054804FF058
:100F5800904010E493FF5401C43333335480FE901F
:100F68007123E0547F4EF0EFC313543F4440FFA376
:100F7800E054804FF0904012E493FF540FFE9071BC
:100F880046E054F04EF0EFC4540FFF90714FE05418
:100F9800F04FF0904013E493543FFF907140E054B9
:100FA800C04FF0904014E493907126F0904015E4FF
:0E0FB80093907128F0904016E49390712AF007
:010FC6002208
:0E148100446035428C000044603100000000E1
:100E070075D9DD120EF812000F1215B812132E1233
:100E170014C2C294E490604FF0A3F090604FE0FEDC
:100E2700A3E0FFC39470EE94174003020EED300069
:100E370003020EEDC3EF9470EE94174003020ECA3F
:100E4700E4FFFE7D807CBF906035E0F8A3E0F9A366
:100E5700E0FAA3E0FB12002BE4FBFA79A878421230
:100E67000225E4FBFA798078BF12002B90603912D3
:100E77000681906035E0FCA3E0FDA3E0FEA3E0FF60
:100E8700E4FBFAF9783F12002B9060351206819047
:100E97006039E0FCA3E0FDA3E0FEA3E0FF9060451E
:100EA7001206817F007E007DA07C40120934E4FB9E
:100EB700FA7970784212011C12037990604FEEF0B4
:100EC700A3EFF0C3906050E0947090604FE09417E8
:100ED70040077417F0A37470F01216137F107E008A
:100EE7001215D3020E22120CF612107812138A80F2
:010EF700F505
:0E148F0042604F00004260511770C100C10161
:10132E007812E24401F278567407F278277417F2B5
:10133E0018746FF27833E4F218F27819E24401F27D
:10134E007811E24401F27817E24401F27812E24495
:10135E0001F27814E24401F27818E24401F278D3F3
:10136E00E254CFF2E24410F2E254FCF2E24401F213
:0C137E0090718AE4F090718C740AF022E7
:1016130090604FE07833F2A3E018F27817E24401C8
:02162300F222B1
:060FC70090604612068155
:100FCD007F527E497D9D7C3A906046E0F8A3E0F922
:100FDD00A3E0FAA3E0FB12011C90604A1206817F88
:100FED00CD7ECC7DCC7C3F90604AE0F8A3E0F9A3A8
:100FFD00E0FAA3E0FB1202C26010400E9060517443
:10100D0017F0A37470F0D201803E7FCD7ECC7DCCE5
:10101D007C3F90604AE0F8A3E0F9A3E0FAA3E0FB7F
:10102D001202C25023906051740BF0A374B8F0C239
:10103D0001906051E0FEA3E0FFC3906050E09F90EF
:10104D00604FE09E4002D2007FCD7ECC7D2C7C4057
:10105D0090604AE0F8A3E0F9A3E0FAA3E0FB1202E6
:0A106D00C260054003D29422C29431
:011077002256
:10138A00E4906041F0A3F0A312068D000000007FF4
:10139A000212143BE4906041F01211AF90604312C4
:1013AA000681E47F8C7E0AFDFC906043E0F8A3E0AE
:1013BA00F9A3E0FAA3E0FBC31206314006906042AB
:1013CA00E004F0906041E004F0E0C3940A40CA905F
:0B13DA006042E0B40A03D29422C294E7
:0113E50022E5
:1012CE00906051E0FEA3E0FFD3906050E09F9060ED
:1012DE004FE09E400CA3E024FFF090604FE034FFFF
:1012EE00F0906051E0FEA3E0FFC3906050E09F904D
:1012FE00604FE09E500CA3E004F0700690604FE04B
:10130E0004F0121613C3906050E094A890604FE062
:10131E00941640047F0780027F037E001215D322AD
:10149D00446005000000004160030041600200410E
:0714AD00600400C102C1034D
:050A9A00906046EDF044
:100A9F00E4A3F0A3F0A3F0A3F0906047F0A3F090CD
:100AAF006046E024FFFFE434FFFEC3906048E09F00
:100ABF00EE6480F8906047E06480984003020BCCAE
:100ACF00E4906049F0A3F0906046E024FFFFE43427
:100ADF00FFFEA3E0FCA3E0FDC3EF9DFFEE9CFEA392
:100AEF00E0FCA3E0FDC39FEE6480F8EC64809840C7
:100AFF0003020BB8ED2401FFE43CFEEF25E0FFEE0F
:100B0F00338F82F5831204A1FDACF090604AE0258B
:100B1F00E0FF906049E0338F82F5831204A1D39DEB
:050B2F00E5F09C4070A0
:100B3400906049E0FCA3E0FD25E0FFEC338F82F5F3
:100B4400831204A1FF90604BE5F0F0A3EFF0ED24D5
:100B540001FFE43CFEEF25E0FFEE338F82F58312C4
:100B640004A1FD90604AE025E0FF906049E0338FE6
:100B740082F583E5F08DF01204D990604BE0FCA37C
:100B8400E0FD90604AE02401FF906049E03400FEFB
:100B9400EF25E0FFEE338F82F583EC8DF01204D95C
:100BA40090604AE004F06003020AD6906049E004D1
:100BB400F0020AD6906048E004F06003020AAE90A6
:080BC4006047E004F0020AAEF4
:010BCC002206
:0D000F0078F2E24403F278E3E244C0F2220A
:10143B00E4906000F0A3F0EF24FE6019047030908C
:10144B007123E054F8F0E0441EF09071227407F021
:10145B007599188014907123E054F8F0E0441EF055
:10146B009071227407F07599177869E24448F27FFE
:06147B00017E000215D302
:101567007869E24401F2786BE230E1FAAF93EF7504
:10157700F010A4FFE594C4540FFDEF4DFF906000F9
:0A158700E5F0F0A3EFF07402F22289
:101591007E007F147D007B017A60791D1206BEE416
:1015A100906003F0FE7F14FD7B017A6079091206D9
:0715B100BEE4906002F0228D
:1006EA007869E24401F2786BE230E1FA7402F2AF1F
:1006FA0093EF75F010A4FFE594C4540FFDEF4DFF7E
:10070A00906000E5F0F0A3EFF0906000E0FCA3E059
:10071A00FDE4120340906005E0F8A3E0F9A3E0FAD3
:10072A00A3E0FB120027E4FBFA79C878421202C25E
:10073A004031906000E0FCA3E0FDE4120340A8040D
:10074A00A905AA06AB07906005E0FCA3E0FDA3E0BB
:10075A00FEA3E0FF120027E4FBFA79C878421202EE
:10076A00C25024906000E0FEA3E0FF906003E02501
:10077A00E0241DF582E43460F583EEF0A3EFF090F7
:10078A006003E004F08036906000E0FEA3E0FF9092
:10079A006002E025E02409F582E43460F583EEF096
:1007AA00A3EFF0906002E004F07E007F147D007BEE
:1007BA00017A60791D1206BEE4906003F09060022F
:0907CA00E0C3940A500302087216
:1007D30090604112068D00000000E4906045F0FE39
:1007E3007F14FD7B017A60791D1206BEE4906003DD
:1007F300F07B017A6079097D0A120A9A9060457448
:1008030001F0906041E0F8A3E0F9A3E0FAA3E0FB74
:10081300A3E025E02409F582E43460F583E0FEA338
:10082300E0FFE4FCFDEB2FFFEA3EFEED39FDEC3883
:10083300FC906041120681906045E004F0E0B40949
:10084300C1906041E0FCA3E0FDA3E0FEA3E0FF78DC
:1008530003120642E412033B906005120681906086
:0C0863004112068D00000000E4906002CD
:0F086F0002091A906003E0C3940A500302092C97
:10087E0090604112068D00000000E4906045F0FE8D
:10088E007F14FD7B017A6079091206BEE490600246
:10089E00F07B017A60791D7D0A120A9A9060457488
:1008AE0001F0906041E0F8A3E0F9A3E0FAA3E0FBC9
:1008BE00A3E025E0241DF582E43460F583E0FEA379
:1008CE00E0FFE4FCFDEB2FFFEA3EFEED39FDEC38D8
:1008DE00FC906041120681906045E004F0E0B4099E
:1008EE00C1906041E0FCA3E0FDA3E0FEA3E0FF7831
:1008FE0003120642E412033B9060051206819060DB
:10090E004112068D00000000E4906003F090600537
:0E091E00E0FCA3E0FDA3E0FEA3E0FF120FC784
:08092C00E4906000F0A3F0224A
:1011AF00E4906047F0A312068D00000000E4906009
:1011BF0047F0121567906048E0F8A3E0F9A3E0FA52
:1011CF00A3E0FB906000E0FEA3E0FFE4FCFDEB2F4B
:1011DF00FFEA3EFEED39FDEC38FC906048120681C7
:1011EF00906047E0C394014017A3E0FCA3E0FDA388
:1011FF00E0FEA3E0FF7801120642906048120681DC
:10120F007F147E001215D3906047E004F0E0C39482
:10121F0003409FE47F0CFEFDFC906048E0F8A3E0E4
:10122F00F9A3E0FAA3E0FB120506E47B0AFAF9F84A
:03123F0002059114
:100CF60090604112068D00000000906004E06402DE
:100D06007003020E06E4906000F0A3F07F01121457
:100D16003B906004E0705F7FEA7E0BFDFC906041D3
:100D2600E0F8A3E0F9A3E0FAA3E0FBC31206315012
:010D36004577
:100D3700E4906045F0F01211AF906041120681E433
:100D47007FEA7E0BFDFC906041E0F8A3E0F9A3E0A9
:100D5700FAA3E0FBD31206314006E4906004F022C8
:100D6700906045E004F0E0C3940A40CA90600474C0
:050D770001F0021591DE
:0B0D7C00906004E064016003020E06BA
:100D870020020FD20290605312068D00000000125D
:100D97001635E47F307E75FDFC906053E0F8A3E0E4
:0D0DA700F9A3E0FAA3E0FBC31206314052AD
:100DB400E4906045F0F01211AF906041120681E4B6
:100DC4007FEA7E0BFDFC906041E0F8A3E0F9A3E02C
:100DD400FAA3E0FBD312063140079060047401F0DB
:100DE40022906045E004F0E0C3940A40C990600496
:100DF4007402F01215FF90605312068D000000007B
:020E0400C20228
:010E060022C9
:10107800906004E07038200305D20312162520047E
:1010880003021114C204E4906000F0A3F07F02127E
:10109800143B1206EA906051E0FEA3E0FF90604F17
:1010A800E06E7003A3E06F60631212CE80E7906079
:1010B80004E0B401281215EBC203906051740BF0E0
:1010C800A374B8F0906051E0FEA3E0FF90604FE099
:1010D8006E7003A3E06F60341212CE80E790600454
:1010E800E0B402281215EBC2039060517405F0A316
:1010F80074DCF0906051E0FEA3E0FF90604FE06E7A
:0C1108007003A3E06F60051212CE80E7B8
:0111140022B8
:0614B40041605A00C10472
:1015B80043A820D2AF75D10178957401F2187476DA
:0B15C800F2789174A0F21874FDF2227A
:101625007890E2541FF2E244C0F243A820D2AF22E0
:1015EB007890E2541FF2E244A0F27892E4F208F20F
:0415FB0053A8DF22F0
:03001E0002153593
:10153500C0E0C083C082C0D075D000C0007891E201
:1015450030E714E24480F290605AE004F0E0C3947E
:10155500194004E4F0D204D000D0D0D082D083D09A
:02156500E03272
:0D164500E5F430E4FB8FF7E5F430E4FB2220
:01001C0022C1
:10150200906057EBF0A3EAF0A3E9F0906057E0FB9C
:10151200A3E0FAA3E0F91204726017906057A3E403
:1015220075F00112048BA9F0FA120472FF1216452B
:0315320080D9223B
:0714BA004460530000000034
:1014C200E5B154CF42B1789CE254E3F2E24414F223
:1014D200E254FCF2E24401F208E24480F2E24420E7
:1014E200F278A1743BF2187460F2789EE4F208F28A
:1014F200789CE2541FF2E244A0F253A8BFD2AF227A
:10163500789CE2541FF2E244C0F243A840D2AF22A4
:1015FF00789CE2541FF2E244A0F2789EE4F208F2E3
:04160F0053A8BF22FB
:030021000213E6E1
:1013E600C0E0C0F0C083C082C0D075D000C000C0CD
:1013F60004C005C006C007789DE230E723E24480BA
:10140600F2906053E0FCA3E0FDA3E0FEA3E024011C
:10141600FFE43EFEE43DFDE43CFC90605312068191
:10142600D007D006D005D004D000D0D0D082D0834B
:05143600D0F0D0E0320F
:100024000203E5E86480F8E933E83360110460F022
:10003400ED33EC337009E8FCE9FDEAFEEBFF220442
:1000440060DED3EB9FEA9EE99DE8C2E78CF0C2F73D
:1000540095F0400CE8CCF8E9CDF9EACEFAEBCFFB09
:100064001203B085D0F05804700320D5B3E80470AF
:10007400075002B2D50203EF92D5EC0460F7E4CC4A
:10008400C0E0C398F8603B94186008400DD0E0FBD2
:100094000203C7E4FBFAC9FC8028E830E406E4C99B
:1000A400FBE4CAFCE830E305E4C9CACBFCE8540726
:1000B4006010F8C3E913F9EA13FAEB13FBEC13FC31
:1000C400D8F130F52FC3E49CFCEF9BFFEE9AFEEDD4
:1000D40099FDD0E0FBEF4E4D4C701222DB0302037E
:1000E400ECEC2CFCEF33FFEE33FEED33FDED30E7AB
:1000F400EB0203C7EF2BFFEE3AFEED39FDD0E0FB38
:1001040050130BBB00030203EFED13FDEE13FEEFE0
:0801140013FFEC13FC0203C70A
:10011C00EC4D6011E8497017ED33EC3304600DE4DD
:10012C00FCFFFEFD22E933E8330470F80203E5120C
:10013C0003B058046009E4CC24815006285009020D
:10014C0003EF2840030203ECC0E0EB4A7044B98093
:10015C0006D0E0FB0203DBEF4E701CBD8008EBFF0A
:10016C00EAFEE9FD80EBE98DF0A4FEE5F002020564
:10017C00E9CDF9EAFEEBFFEF89F0A4FCE5F0CE89BE
:10018C00F0A42EFFE435F0CD89F0A42DFEE435F07B
:10019C008067EF4E7005BD80D780C3EF8BF0A4ACA9
:1001AC00F0EE8BF0A42CFCE435F0F8EF8AF0A42CE4
:1001BC00E5F038FCE433CB8DF0A42CFCE5F03BF8F7
:1001CC00EE8AF0A42CFCE5F038F8E433CF89F0A4E7
:1001DC002CFCE5F038CF3400CE89F0A42FFFE5F0ED
:1001EC003EFEE433C98DF0A42EFEE5F039CD8AF045
:1001FC00A42FFFE5F03EFEE43DFD33D0E0FB5007BD
:10020C000BBB000F0203EFEC2CFCEF33FFEE33FEC5
:06021C00ED33FD0203C7F3
:100222000203EFEC5D046005E8590470030203E584
:100232001203B0580460F6EC4860F2EC7004FDFE64
:10024200FF22C860DB2481C85009C39860025006AF
:100252000203EC9850CAF582E9294B4A7005AB8239
:100262000203DB75F0007C1A7880C3EF9BEE9AEDF7
:1002720099400DC3EF9BFFEE9AFEED99FDE842F027
:10028200DC23ACF0D0E0FFD0E0FED0E0FDAB82207A
:10029200E7101BEB60BAEC2CFCEF33FFEE33FEED04
:1002A20033FD0203C7E803F830E705C0F075F0003C
:1002B200EF2FFFEE33FEED33FD40B830E7C280AAE8
:1002C20074F8CC6480CCC86480C8F58204604FC3E3
:1002D200EB9FF5F0EA9E42F0E99D42F0E89C45F082
:1002E200603C501DE5825FFFE582D313CB5BCBF40C
:1002F2002B5582FB50280ABA002409B90020088035
:100302001DE5825BFBE582D313CF5FCFF4C3132FCE
:100312005582FF50090EBE00050DBD00010CC3EB56
:100322009FF5F0EA9E42F0E99D42F0E89C45F060BC
:0903320007CC4820E701B3EC22DE
:10033B0075F020800E75F010800575F0087D007E3D
:10034B00007F003392D530D503120623EC334010D7
:10035B00EF33FFEE33FEED33FDEC33FCD5F0ED2246
:0E036B00E5F0247EA2D513CC92E7CDCEFF2282
:10037900EDD2E7CD33EC3392D524814006E4FFFE7C
:10038900FDFC22FCE4CFCECDCC24E0501174FF80DB
:10039900EDC3CC13CCCD13CDCE13CECF13CF047078
:0703A900F030D5DE0206234F
:10093400906041120681E4FFFE7D807C3F9060411F
:10094400E0F8A3E0F9A3E0FAA3E0FB1202C2700608
:10095400906041020A8E906041E0FCA3E0FDA3E0B8
:10096400FEA3E0FF1203FAFBA3E0FCA3E0FDA3E077
:10097400FEA3E0FF1203FAFFB40108E4FFFE7D804A
:100984007C3F22EF64046029EB64046024EBB4012F
:1009940030E4FFFEFDFC906045E0F8A3E0F9A3E03D
:1009A400FAA3E0FB1202C260084006E4FFFEFDFC6D
:1009B4002290604512068DFFFFFFFF906045020AFA
:1009C4008EE4906049F0A3F0FFFEFDFC906041E0EE
:1009D400F8A3E0F9A3E0FAA3E0FB1202C2505F908F
:1009E4006045E0FCA3E0FDA3E0FEA3E0FF12037971
:1009F400906049EEF0A3EFF0FDCCEECCEC12034096
:100A0400C8ECC8C9EDC9CAEECACBEFCB906045E0CB
:100A1400FCA3E0FDA3E0FEA3E0FF120027E4FBFA41
:100A2400F9F81202C2708A906041E0FCA3E0FDA3D1
:100A3400E0FEA3E0FF12041490604112068190606E
:100A440041E0FCA3E0FDA3E0FEA3E0FF120C019053
:100A54006045E0F8A3E0F9A3E0FAA3E0FB12011C6F
:100A640012114D90604512068190604AE030E01703
:100A7400906045E0FCA3E0FDA3E0FEA3E0FF1204C8
:100A840014906045120681906045E0FCA3E0FDA34C
:060A9400E0FEA3E0FF22DA
:1003B000E9D2E7C933E833F892D5EDD2E7CD33EC93
:0703C00033FC5002B2D5220C
:1003C700EC30E7100FBF000C0EBE00080DBD000497
:1003D7000BEB6014A2D5EB13FCED92E7FD2274FF43
:1003E700FCFDFEFF22E480F8A2D574FF13FC7D809C
:0303F700E480EFB0
:1003FA00ED33EC33601004700FED547F7005740216
:0A040A0092E0227404220422E4228E
:10041400ED33EC33600A047003BD8004ECB2E7FCF6
:0104240022B5
:1011150033DA929E35B16011377FE5FE3921848936
:101125003AAEC3FF3C1D955B3D6358473E75FDF0E8
:101135003F3172183F800000C2D50203EF0203E57C
:10114500BD80FA50F30203ECED33EC330460F17B20
:101155003B7AAA79B8783F12011CED33EC3392D56E
:10116500247B5011A2D570DB500BED448024045034
:1011750004A2D580CEEFFBEEFAEDF9ECF812037977
:10118500EFF582F404FC12034512002BC082901186
:10119500157409120434ED33CC33D0F092D525F013
:0A11A500A2D57001C313CC13FD2284
:100BCD003E9248DA3ECCCCCD3F2AAAAB4000000085
:100BDD003F8000003F9837F03FB504F33FD744FC0A
:100BED003E3172173EB172173F0515913EDE5BD94E
:100BFD00D2058002C205EDD2E7F8CD33EC33047097
:100C0D000BBD800592D50203EF0203E540FBD31423
:100C1D0060F2F5F07C3FEE7A00C39496C8948B4059
:100C2D00230AC89469C8941A401A0AC89468C894CB
:100C3D001F40110AC8945AC89425400805F07A003F
:100C4D00CDC2E7CDC0F090604B120681EA2323C0E0
:100C5D00E024DDF582E4340BF58312067112002BCE
:100C6D00ECC0E0EDC0E0EEC0E0EFC0E01206559044
:100C7D00604B120665120027D0E0FBD0E0FAD0E001
:100C8D00F9D0E0B2E7F812022590604B1206819080
:100C9D000BCD740312042590604B12066512011CD6
:100CAD00D0E0600F24E9F582E4340BF58312067170
:100CBD0012002B90604B120681D0E0C3947FFDE4AF
:100CCD009400FC1203407B187A727931783F12013F
:100CDD001C90604B12066512002B30050B7BD97AE8
:090CED005B79DE783E12011C2245
:10042500C0E0EFFBEEFAEDF9ECF812011CD0E0F5B7
:10043500F0EFFBEEFAEDF9ECF8120655A3A3A3A332
:10044500E8C0E0E9C0E0EAC0E0EBC0E0C0F01201BE
:100455001C120671A3A3A3A312002BD0F0D0E0FBBE
:0D046500D0E0FAD0E0F9D0E0F8D5F0D422D4
:10124E00020E07E493A3F8E493A34003F68001F2A1
:10125E0008DFF48029E493A3F85407240CC8C333A1
:10126E00C4540F4420C8834004F456800146F6DF70
:10127E00E4800B0102040810204080901481E47E6B
:10128E00019360BCA3FF543F30E509541FFEE49365
:10129E00A360010ECF54C025E060A840B8E493A32C
:1012AE00FAE493A3F8E493A3C8C582C8CAC583CA57
:1012BE00F0A3C8C582C8CAC583CADFE9DEE780BE0F
:0114C100002A
:10047200BB010689828A83E0225002E722BBFE0288
:09048200E32289828A83E49322BB
:10048B00A3F8E0C5F025F0F0E58215827002158324
:06049B00E0C838F0E82281
:1004A100BB0110E58229F582E5833AF583E0F5F099
:1004B100A3E0225009E92582F886F008E622BBFE76
:1004C1000AE92582F8E2F5F008E222E5832AF583BC
:0804D100E993F5F0A3E9932281
:1004D900F8BB0111E58229F582E5833AF583E8F055
:1004E900E5F0A3F0225009E92582C8F608A6F02212
:0D04F900BBFE09E92582C8F2E5F008F222F9
:10050600E88FF0A4CC8BF0A42CFCE98EF0A42CFC94
:100516008AF0EDA42CFCEA8EF0A4CDA8F08BF0A412
:100526002DCC3825F0FDE98FF0A42CCD35F0FCEB71
:100536008EF0A4FEA9F0EB8FF0A4CFC5F02ECD3936
:0F054600FEE43CFCEAA42DCE35F0FDE43CFC22A3
:1005550075F008758200EF2FFFEE33FECD33CDCC5D
:1005650033CCC58233C5829BED9AEC99E5829840E0
:100575000CF582EE9BFEED9AFDEC99FC0FD5F0D6BD
:10058500E4CEFBE4CDFAE4CCF9A88222B800C1B9E7
:100595000059BA002DEC8BF084CFCECDFCE5F0CB25
:1005A500F97818EF2FFFEE33FEED33FDEC33FCEB5E
:1005B50033FB10D703994004EB99FB0FD8E5E4F919
:1005C500FA227818EF2FFFEE33FEED33FDEC33FC06
:1005D500C933C910D7059BE99A4007EC9BFCE99AFA
:1005E500F90FD8E0E4C9FAE4CCFB2275F010EF2F3F
:1005F500FFEE33FEED33FDCC33CCC833C810D7073F
:100605009BEC9AE899400AED9BFDEC9AFCE899F879
:0E0615000FD5F0DAE4CDFBE4CCFAE4C8F9220C
:0E062300C3E49FFFE49EFEE49DFDE49CFC22E8
:10063100EB9FF5F0EA9E42F0E99D42F0E89C45F01F
:010641002296
:10064200E8600FECC313FCED13FDEE13FEEF13FF96
:03065200D8F122BA
:10065500E493FC740193FD740293FE740393FF22EB
:0C066500E0F8A3E0F9A3E0FAA3E0FB2218
:10067100E493F8740193F9740293FA740393FB22DF
:0C068100ECF0A3EDF0A3EEF0A3EFF022EC
:10068D00A8828583F0D083D0821206A41206A4120C
:10069D0006A41206A4E473E493A3C583C5F0C58331
:1006AD00C8C582C8F0A3C583C5F0C583C8C582C8B7
:0106BD00221A
:1006BE00EF4E6012EF60010EEDBB010B89828A8353
:1006CE00F0A3DFFCDEFA2289F05007F709DFFCA960
:0C06DE00F022BBFEFCF309DFFCA9F022B7
:00000001FF
