:030000000212DD0C
:0C12DD00787FE4F6D8FD75812002132410
:0C000300000000000000000000000000F1
:0B16A400EF1FAC0670011E4C70F62218
:10161300AB07AA06EB1BAE0270011A4E60097FAA44
:081623007E051216A480ED22E1
:100F8600907120E04480F07F057E001216A4E4FFF5
:100F9600FE12161375A75575AC589071327450F041
:100FA6009071307403F0907136742FF07F18EF242F
:100FB60066FDE434718D82F583E4F00FEFB433EE11
:100FC600904011E4935407FF90711CE054F84FF0E1
:100FD600904017E493547FFF90711DE054804FF0CA
:100FE600904010E493FF5401C43333335480FE9091
:100FF6007123E0547F4EF0EFC313543F4440FFA3E8
:10100600E054804FF0904012E493FF540FFE90712D
:1010160046E054F04EF0EFC4540FFF90714FE05489
:10102600F04FF0904013E493543FFF907140E0542A
:10103600C04FF0904014E493907126F0904015E470
:0E10460093907128F0904016E49390712AF078
:011054002279
:0E147600446037428C000044603300000000E8
:100E950075D9DD120F8612000F1215F8121369129B
:100EA5001502C294E4906051F0A3F0906051E0FE09
:100EB500A3E0FFC39470EE94174003020F7B300349
:100EC50003020F7BC3EF9470EE94174003020F5893
:100ED500E4FFFE7D807CBF906037E0F8A3E0F9A3D6
:100EE500E0FAA3E0FB12002BE4FBFA79A8784212A2
:100EF5000225E4FBFA798078BF12002B90603B1243
:100F05000681906037E0FCA3E0FDA3E0FEA3E0FFCF
:100F1500E4FBFAF9783F12002B90603712068190B6
:100F2500603BE0FCA3E0FDA3E0FEA3E0FF9060478B
:100F35001206817F007E007DA07C401209B9E4FB8A
:100F4500FA7970784212011C120379906051EEF023
:100F5500A3EFF0C3906052E09470906051E0941755
:100F650040077417F0A37470F01216537F0B7E00C0
:100F7500121613020EB0120D7B1211131213C58037
:010F8500F576
:0E14840042605100004260531770C103C10462
:101369007812E24401F278567407F278277417F27A
:1013790018746FF27833E4F218F27819E24401F242
:101389007811E24401F27817E24401F27812E2445A
:1013990001F27814E24401F27818E24401F278D3B8
:1013A900E254CFF2E24410F2E254FCF2E24401F2D8
:0C13B90090718AE4F090718C740AF022AC
:10165300906051E07833F2A3E018F27817E2440186
:02166300F22271
:06105500906048120681C4
:10105B007F527E497D9D7C3A906048E0F8A3E0F991
:10106B00A3E0FAA3E0FB12011C90604C1206817FF7
:10107B00CD7ECC7DCC7C3F90604CE0F8A3E0F9A317
:10108B00E0FAA3E0FB1202C2601E401C90605330DA
:10109B00020B740BF0A374B8F0C20480497417F000
:1010AB00A37470F0D204803E7FCD7ECC7DCC7C3F90
:1010BB0090604CE0F8A3E0F9A3E0FAA3E0FB120286
:1010CB00C25023906053740BF0A374B8F0C2049019
:1010DB006053E0FEA3E0FFC3906052E09F9060512D
:1010EB00E09E4002D2037466FFFEFD7C4090604C94
:1010FB00E0F8A3E0F9A3E0FAA3E0FB1202C260055B
:07110B004003D29422C294BC
:0111120022BA
:1013C500E4906043F0A3F0A312068D000000007FB7
:1013D500021214BCE4906043F012124A9060451268
:1013E5000681E47F107E0EFDFC906045E0F8A3E0E9
:1013F500F9A3E0FAA3E0FBC312063140069060446E
:10140500E004F0906043E004F0E0C3940A40CA9021
:0B1415006044E0B40A03D29422C294A9
:0114200022A9
:10166500906053E0FFA3E0906051CFF0A3EFF0024C
:0216750016530A
:101492004460070000000041600500416004004113
:0C14A2006006004260000000C100C101B3
:050B1F00906048EDF0BC
:100B2400E4A3F0A3F0A3F0A3F0906049F0A3F09045
:100B34006048E024FFFFE434FFFEC390604AE09F76
:100B4400EE6480F8906049E06480984003020C51A0
:100B5400E490604BF0A3F0906048E024FFFFE4349D
:100B6400FFFEA3E0FCA3E0FDC3EF9DFFEE9CFEA30C
:100B7400E0FCA3E0FDC39FEE6480F8EC6480984041
:100B840003020C3DED2401FFE43CFEEF25E0FFEE03
:100B9400338F82F5831204A1FDACF090604CE02504
:100BA400E0FF90604BE0338F82F5831204A1D39D64
:050BB400E5F09C40701B
:100BB90090604BE0FCA3E0FD25E0FFEC338F82F56C
:100BC900831204A1FF90604DE5F0F0A3EFF0ED244E
:100BD90001FFE43CFEEF25E0FFEE338F82F583123F
:100BE90004A1FD90604CE025E0FF90604BE0338F5D
:100BF90082F583E5F08DF01204D990604DE0FCA3F5
:100C0900E0FD90604CE02401FF90604BE03400FE71
:100C1900EF25E0FFEE338F82F583EC8DF01204D9D6
:100C290090604CE004F06003020B5B90604BE004C1
:100C3900F0020B5B90604AE004F06003020B339012
:080C49006049E004F0020B33E6
:010C51002280
:0D000F0078F2E24403F278E3E244C0F2220A
:1014BC00E4906002F0A3F0EF24FE60190470309009
:1014CC007123E054F8F0E0441EF09071227407F0A0
:1014DC007599188014907123E054F8F0E0441EF0D4
:1014EC009071227407F07599177869E24448F27F7D
:0614FC00017E0002161340
:1015A7007869E24401F2786BE230E1FAAF93EF75C4
:1015B700F010A4FFE594C4540FFDEF4DFF906002B7
:0A15C700E5F0F0A3EFF07402F22249
:1015D1007E007F147D007B017A60791F1206BEE4D4
:1015E100906005F0FE7F14FD7B017A60790B120695
:0715F100BEE4906004F0224B
:1006EA007869E24401F2786BE230E1FA7402F2AF1F
:1006FA0093EF75F010A4FFE594C4540FFDEF4DFF7E
:09070A00906002E5F0F0A3EFF0AD
:10071300906002E0FFA3E0906043CFF0A3EFF0E42A
:10072300A3F0906001E025E0F0906000E033F090EA
:100733006043E0FEA3E0FFC39452EE94084010D35D
:0F074300EF9433EE940B5007906001E04401F007
:10075200E4906046F0906046E0FFC3940850249015
:100762006000E0FEA3E0A807088005CEC313CE1305
:10077200D8F930E006906045E004F0906046E0046D
:03078200F080D232
:10078500906045E0FFC394034004D2028005EF70FA
:0307950002C2029B
:10079800906002E0FCA3E0FDE4120340906007E0F3
:1007A800F8A3E0F9A3E0FAA3E0FB120027E4FBFAC0
:1007B80079C878421202C24031906002E0FCA3E09E
:1007C800FDE4120340A804A905AA06AB0790600738
:1007D800E0FCA3E0FDA3E0FEA3E0FF120027E4FB9A
:1007E800FA79C878421202C25024906002E0FEA34F
:1007F800E0FF906005E025E0241FF582E43460F511
:1008080083EEF0A3EFF0906005E004F0803690608E
:1008180002E0FEA3E0FF906004E025E0240BF582EF
:10082800E43460F583EEF0A3EFF0906004E004F0A8
:100838007E007F147D007B017A60791F1206BEE47A
:10084800906005F0906004E0C3940A50030208F732
:1008580090604312068D00000000E4906047F0FEAF
:100868007F14FD7B017A60791F1206BEE490600553
:10087800F07B017A60790B7D0A120B1F9060477438
:1008880001F0906043E0F8A3E0F9A3E0FAA3E0FBED
:10089800A3E025E0240BF582E43460F583E0FEA3B1
:1008A800E0FFE4FCFDEB2FFFEA3EFEED39FDEC38FE
:1008B800FC906043120681906047E004F0E0B409C0
:1008C800C1906043E0FCA3E0FDA3E0FEA3E0FF7855
:1008D80003120642E412033B9060071206819060FF
:0C08E8004312068D00000000E490600444
:0F08F40002099F906005E0C3940A50030209B106
:1009030090604312068D00000000E4906047F0FE03
:100913007F14FD7B017A60790B1206BEE4906004BC
:10092300F07B017A60791F7D0A120B1F9060477478
:1009330001F0906043E0F8A3E0F9A3E0FAA3E0FB41
:10094300A3E025E0241FF582E43460F583E0FEA3F1
:10095300E0FFE4FCFDEB2FFFEA3EFEED39FDEC3852
:10096300FC906043120681906047E004F0E0B40914
:10097300C1906043E0FCA3E0FDA3E0FEA3E0FF78A9
:1009830003120642E412033B906007120681906053
:100993004312068D00000000E4906005F0906007AC
:0E09A300E0FCA3E0FDA3E0FEA3E0FF12105570
:0809B100E4906002F0A3F022C3
:10124A00E4906049F0A312068D00000000E490606B
:10125A0049F01215A790604AE0F8A3E0F9A3E0FA72
:10126A00A3E0FB906002E0FEA3E0FFE4FCFDEB2FAD
:10127A00FFEA3EFEED39FDEC38FC90604A12068129
:10128A00906049E0C394014017A3E0FCA3E0FDA3EA
:10129A00E0FEA3E0FF780112064290604A1206813E
:1012AA007F147E00121613906049E004F0E0C394A4
:1012BA0003409FE47F0CFEFDFC90604AE0F8A3E047
:1012CA00F9A3E0FAA3E0FB120506E47B0AFAF9F8AF
:0312DA0002059179
:100D7B0090604312068D00000000906006E0640254
:100D8B007003020E94E4906002F0A3F07F01121442
:100D9B00BC12124A906043120681906006E0705FAD
:100DAB007FEA7E0BFDFC906043E0F8A3E0F9A3E043
:0A0DBB00FAA3E0FBC3120631504515
:100DC500E4906047F0F012124A906043120681E405
:100DD5007FEA7E0BFDFC906043E0F8A3E0F9A3E019
:100DE500FAA3E0FBD31206314006E4906006F02238
:100DF500906047E004F0E0C3940A40CA906006742E
:050E050001F00215D10F
:0B0E0A00906006E064016003020E949B
:100E150020000FD20090605512068D0000000012D0
:100E25001687E47F307E75FDFC906055E0F8A3E001
:0D0E3500F9A3E0FAA3E0FBC312063140521E
:100E4200E4906047F0F012124A906043120681E487
:100E52007FEA7E0BFDFC906043E0F8A3E0F9A3E09B
:100E6200FAA3E0FBD312063140079060067401F04A
:100E720022906047E004F0E0C3940A40C990600603
:100E82007402F012163F90605512068D00000000A9
:020E9200C2009C
:010E9400223B
:10111300906006E07038200105D201121677200591
:10112300030211AFC205E4906002F0A3F07F021244
:1011330014BC1206EA906053E0FEA3E0FF906051F6
:10114300E06E7003A3E06F606312166580E7906042
:1011530006E0B4012812162BC201906053740BF001
:10116300A374B8F0906053E0FEA3E0FF906051E0F9
:101173006E7003A3E06F603412166580E79060061B
:10118300E0B4022812162BC2019060537405F0A339
:1011930074DCF0906053E0FEA3E0FF906051E06EDA
:0C11A3007003A3E06F600512166580E782
:0111AF00221D
:0614AE0041605C00C10575
:1015F80043A820D2AF75D10178957401F21874769A
:0B160800F2789174A0F21874FDF22239
:101677007890E2541FF2E244C0F243A820D2AF228E
:10162B007890E2541FF2E244A0F27892E4F208F2CE
:04163B0053A8DF22AF
:03001E0002157553
:10157500C0E0C083C082C0D075D000C0007891E2C1
:1015850030E714E24480F290605CE004F0E0C3943C
:10159500194004E4F0D205D000D0D0D082D083D059
:0215A500E03232
:0D169700E5F430E4FB8FF7E5F430E4FB22CE
:01001C0022C1
:10154200906059EBF0A3EAF0A3E9F0906059E0FB58
:10155200A3E0FAA3E0F91204726017906059A3E4C1
:1015620075F00112048BA9F0FA120472FF12169799
:0315720080D922FB
:0714B4004460550000000038
:10150200E5B154CF42B1789CE254E3F2E24414F2E2
:10151200E254FCF2E24401F208E24480F2E24420A6
:10152200F278A1743BF2187460F2789EE4F208F249
:10153200789CE2541FF2E244A0F253A8BFD2AF2239
:10168700789CE2541FF2E244C0F243A840D2AF2252
:10163F00789CE2541FF2E244A0F2789EE4F208F2A2
:04164F0053A8BF22BB
:03002100021421A5
:10142100C0E0C0F0C083C082C0D075D000C000C091
:1014310004C005C006C007789DE230E723E244807E
:10144100F2906055E0FCA3E0FDA3E0FEA3E02401DF
:10145100FFE43EFEE43DFDE43CFC90605512068154
:10146100D007D006D005D004D000D0D0D082D08310
:05147100D0F0D0E032D4
:100024000203E5E86480F8E933E83360110460F022
:10003400ED33EC337009E8FCE9FDEAFEEBFF220442
:1000440060DED3EB9FEA9EE99DE8C2E78CF0C2F73D
:1000540095F0400CE8CCF8E9CDF9EACEFAEBCFFB09
:100064001203B085D0F05804700320D5B3E80470AF
:10007400075002B2D50203EF92D5EC0460F7E4CC4A
:10008400C0E0C398F8603B94186008400DD0E0FBD2
:100094000203C7E4FBFAC9FC8028E830E406E4C99B
:1000A400FBE4CAFCE830E305E4C9CACBFCE8540726
:1000B4006010F8C3E913F9EA13FAEB13FBEC13FC31
:1000C400D8F130F52FC3E49CFCEF9BFFEE9AFEEDD4
:1000D40099FDD0E0FBEF4E4D4C701222DB0302037E
:1000E400ECEC2CFCEF33FFEE33FEED33FDED30E7AB
:1000F400EB0203C7EF2BFFEE3AFEED39FDD0E0FB38
:1001040050130BBB00030203EFED13FDEE13FEEFE0
:0801140013FFEC13FC0203C70A
:10011C00EC4D6011E8497017ED33EC3304600DE4DD
:10012C00FCFFFEFD22E933E8330470F80203E5120C
:10013C0003B058046009E4CC24815006285009020D
:10014C0003EF2840030203ECC0E0EB4A7044B98093
:10015C0006D0E0FB0203DBEF4E701CBD8008EBFF0A
:10016C00EAFEE9FD80EBE98DF0A4FEE5F002020564
:10017C00E9CDF9EAFEEBFFEF89F0A4FCE5F0CE89BE
:10018C00F0A42EFFE435F0CD89F0A42DFEE435F07B
:10019C008067EF4E7005BD80D780C3EF8BF0A4ACA9
:1001AC00F0EE8BF0A42CFCE435F0F8EF8AF0A42CE4
:1001BC00E5F038FCE433CB8DF0A42CFCE5F03BF8F7
:1001CC00EE8AF0A42CFCE5F038F8E433CF89F0A4E7
:1001DC002CFCE5F038CF3400CE89F0A42FFFE5F0ED
:1001EC003EFEE433C98DF0A42EFEE5F039CD8AF045
:1001FC00A42FFFE5F03EFEE43DFD33D0E0FB5007BD
:10020C000BBB000F0203EFEC2CFCEF33FFEE33FEC5
:06021C00ED33FD0203C7F3
:100222000203EFEC5D046005E8590470030203E584
:100232001203B0580460F6EC4860F2EC7004FDFE64
:10024200FF22C860DB2481C85009C39860025006AF
:100252000203EC9850CAF582E9294B4A7005AB8239
:100262000203DB75F0007C1A7880C3EF9BEE9AEDF7
:1002720099400DC3EF9BFFEE9AFEED99FDE842F027
:10028200DC23ACF0D0E0FFD0E0FED0E0FDAB82207A
:10029200E7101BEB60BAEC2CFCEF33FFEE33FEED04
:1002A20033FD0203C7E803F830E705C0F075F0003C
:1002B200EF2FFFEE33FEED33FD40B830E7C280AAE8
:1002C20074F8CC6480CCC86480C8F58204604FC3E3
:1002D200EB9FF5F0EA9E42F0E99D42F0E89C45F082
:1002E200603C501DE5825FFFE582D313CB5BCBF40C
:1002F2002B5582FB50280ABA002409B90020088035
:100302001DE5825BFBE582D313CF5FCFF4C3132FCE
:100312005582FF50090EBE00050DBD00010CC3EB56
:100322009FF5F0EA9E42F0E99D42F0E89C45F060BC
:0903320007CC4820E701B3EC22DE
:10033B0075F020800E75F010800575F0087D007E3D
:10034B00007F003392D530D503120623EC334010D7
:10035B00EF33FFEE33FEED33FDEC33FCD5F0ED2246
:0E036B00E5F0247EA2D513CC92E7CDCEFF2282
:10037900EDD2E7CD33EC3392D524814006E4FFFE7C
:10038900FDFC22FCE4CFCECDCC24E0501174FF80DB
:10039900EDC3CC13CCCD13CDCE13CECF13CF047078
:0703A900F030D5DE0206234F
:1009B900906043120681E4FFFE7D807C3F90604396
:1009C900E0F8A3E0F9A3E0FAA3E0FB1202C2700683
:1009D900906043020B13906043E0FCA3E0FDA3E0A9
:1009E900FEA3E0FF1203FAFBA3E0FCA3E0FDA3E0F2
:1009F900FEA3E0FF1203FAFFB40108E4FFFE7D80C5
:100A09007C3F22EF64046029EB64046024EBB401A9
:100A190030E4FFFEFDFC906047E0F8A3E0F9A3E0B5
:100A2900FAA3E0FB1202C260084006E4FFFEFDFCE7
:100A39002290604712068DFFFFFFFF906047020B6F
:100A490013E490604BF0A3F0FFFEFDFC906043E0DF
:100A5900F8A3E0F9A3E0FAA3E0FB1202C2505F9009
:100A69006047E0FCA3E0FDA3E0FEA3E0FF120379E9
:100A790090604BEEF0A3EFF0FDCCEECCEC1203400E
:100A8900C8ECC8C9EDC9CAEECACBEFCB906047E044
:100A9900FCA3E0FDA3E0FEA3E0FF120027E4FBFABC
:100AA900F9F81202C2708A906043E0FCA3E0FDA34A
:100AB900E0FEA3E0FF1204149060431206819060E7
:100AC90043E0FCA3E0FDA3E0FEA3E0FF120C869047
:100AD9006047E0F8A3E0F9A3E0FAA3E0FB12011CE8
:100AE9001211E890604712068190604CE030E017DF
:100AF900906047E0FCA3E0FDA3E0FEA3E0FF120441
:100B090014906047120681906047E0FCA3E0FDA3C2
:060B1900E0FEA3E0FF2254
:1003B000E9D2E7C933E833F892D5EDD2E7CD33EC93
:0703C00033FC5002B2D5220C
:1003C700EC30E7100FBF000C0EBE00080DBD000497
:1003D7000BEB6014A2D5EB13FCED92E7FD2274FF43
:1003E700FCFDFEFF22E480F8A2D574FF13FC7D809C
:0303F700E480EFB0
:1003FA00ED33EC33601004700FED547F7005740216
:0A040A0092E0227404220422E4228E
:10041400ED33EC33600A047003BD8004ECB2E7FCF6
:0104240022B5
:1011B00033DA929E35B16011377FE5FE392184899B
:1011C0003AAEC3FF3C1D955B3D6358473E75FDF04D
:1011D0003F3172183F800000C2D50203EF0203E5E1
:1011E000BD80FA50F30203ECED33EC330460F17B85
:1011F0003B7AAA79B8783F12011CED33EC3392D5D3
:10120000247B5011A2D570DB500BED448024045098
:1012100004A2D580CEEFFBEEFAEDF9ECF8120379DB
:10122000EFF582F404FC12034512002BC0829011EA
:10123000B07409120434ED33CC33D0F092D525F0DC
:0A124000A2D57001C313CC13FD22E8
:100C52003E9248DA3ECCCCCD3F2AAAAB40000000FF
:100C62003F8000003F9837F03FB504F33FD744FC84
:100C72003E3172173EB172173F0515913EDE5BD9C8
:100C8200D2068002C206EDD2E7F8CD33EC3304700F
:100C92000BBD800592D50203EF0203E540FBD3149E
:100CA20060F2F5F07C3FEE7A00C39496C8948B40D4
:100CB200230AC89469C8941A401A0AC89468C89446
:100CC2001F40110AC8945AC89425400805F07A00BA
:100CD200CDC2E7CDC0F090604D120681EA2323C059
:100CE200E02462F582E4340CF58312067112002BC3
:100CF200ECC0E0EDC0E0EEC0E0EFC0E012065590BF
:100D0200604D120665120027D0E0FBD0E0FAD0E079
:100D1200F9D0E0B2E7F812022590604D12068190F8
:100D22000C52740312042590604D12066512011CC8
:100D3200D0E0600F246EF582E4340CF58312067164
:100D420012002B90604D120681D0E0C3947FFDE427
:100D52009400FC1203407B187A727931783F1201B9
:100D62001C90604D12066512002B30060B7BD97A5F
:090D72005B79DE783E12011C22BF
:10042500C0E0EFFBEEFAEDF9ECF812011CD0E0F5B7
:10043500F0EFFBEEFAEDF9ECF8120655A3A3A3A332
:10044500E8C0E0E9C0E0EAC0E0EBC0E0C0F01201BE
:100455001C120671A3A3A3A312002BD0F0D0E0FBBE
:0D046500D0E0FAD0E0F9D0E0F8D5F0D422D4
:1012E900020E95E493A3F8E493A34003F68001F278
:1012F90008DFF48029E493A3F85407240CC8C33306
:10130900C4540F4420C8834004F456800146F6DFD4
:10131900E4800B0102040810204080901476E47EDA
:10132900019360BCA3FF543F30E509541FFEE493C9
:10133900A360010ECF54C025E060A840B8E493A390
:10134900FAE493A3F8E493A3C8C582C8CAC583CABB
:10135900F0A3C8C582C8CAC583CADFE9DEE780BE73
:0114BB000030
:10047200BB010689828A83E0225002E722BBFE0288
:09048200E32289828A83E49322BB
:10048B00A3F8E0C5F025F0F0E58215827002158324
:06049B00E0C838F0E82281
:1004A100BB0110E58229F582E5833AF583E0F5F099
:1004B100A3E0225009E92582F886F008E622BBFE76
:1004C1000AE92582F8E2F5F008E222E5832AF583BC
:0804D100E993F5F0A3E9932281
:1004D900F8BB0111E58229F582E5833AF583E8F055
:1004E900E5F0A3F0225009E92582C8F608A6F02212
:0D04F900BBFE09E92582C8F2E5F008F222F9
:10050600E88FF0A4CC8BF0A42CFCE98EF0A42CFC94
:100516008AF0EDA42CFCEA8EF0A4CDA8F08BF0A412
:100526002DCC3825F0FDE98FF0A42CCD35F0FCEB71
:100536008EF0A4FEA9F0EB8FF0A4CFC5F02ECD3936
:0F054600FEE43CFCEAA42DCE35F0FDE43CFC22A3
:1005550075F008758200EF2FFFEE33FECD33CDCC5D
:1005650033CCC58233C5829BED9AEC99E5829840E0
:100575000CF582EE9BFEED9AFDEC99FC0FD5F0D6BD
:10058500E4CEFBE4CDFAE4CCF9A88222B800C1B9E7
:100595000059BA002DEC8BF084CFCECDFCE5F0CB25
:1005A500F97818EF2FFFEE33FEED33FDEC33FCEB5E
:1005B50033FB10D703994004EB99FB0FD8E5E4F919
:1005C500FA227818EF2FFFEE33FEED33FDEC33FC06
:1005D500C933C910D7059BE99A4007EC9BFCE99AFA
:1005E500F90FD8E0E4C9FAE4CCFB2275F010EF2F3F
:1005F500FFEE33FEED33FDCC33CCC833C810D7073F
:100605009BEC9AE899400AED9BFDEC9AFCE899F879
:0E0615000FD5F0DAE4CDFBE4CCFAE4C8F9220C
:0E062300C3E49FFFE49EFEE49DFDE49CFC22E8
:10063100EB9FF5F0EA9E42F0E99D42F0E89C45F01F
:010641002296
:10064200E8600FECC313FCED13FDEE13FEEF13FF96
:03065200D8F122BA
:10065500E493FC740193FD740293FE740393FF22EB
:0C066500E0F8A3E0F9A3E0FAA3E0FB2218
:10067100E493F8740193F9740293FA740393FB22DF
:0C068100ECF0A3EDF0A3EEF0A3EFF022EC
:10068D00A8828583F0D083D0821206A41206A4120C
:10069D0006A41206A4E473E493A3C583C5F0C58331
:1006AD00C8C582C8F0A3C583C5F0C583C8C582C8B7
:0106BD00221A
:1006BE00EF4E6012EF60010EEDBB010B89828A8353
:1006CE00F0A3DFFCDEFA2289F05007F709DFFCA960
:0C06DE00F022BBFEFCF309DFFCA9F022B7
:00000001FF
