:030000000215BF27
:0C15BF00787FE4F6D8FD75812102160645
:0C000300000000000000000000000000F1
:0B19A600EF1FAC0670011E4C70F62213
:10192200AB07AA06EB1BAE0270011A4E60097FAA32
:081932007E051219A680ED22CA
:10131C00907120E04480F07F057E001219A6E4FF56
:10132C00FE12192275A75575AC589071327450F095
:10133C009071307403F0907136742FF07F18EF2495
:10134C0066FDE434718D82F583E4F00FEFB433EE77
:10135C00904011E4935407FF90711CE054F84FF047
:10136C00904017E493547FFF90711DE054804FF030
:10137C00904010E493FF5401C43333335480FE90F7
:10138C007123E0547F4EF0EFC313543F4440FFA34E
:10139C00E054804FF0904012E493FF540FFE907194
:1013AC0046E054F04EF0EFC4540FFF90714FE054F0
:1013BC00F04FF0904013E493543FFF907140E05491
:1013CC00C04FF0904014E493907126F0904015E4D7
:0E13DC0093907128F0904016E49390712AF0DF
:0113EA0022E0
:10178800446036428C000044603200000000416032
:0217980031001E
:10091B0075D9DD12131C12000F12190712164B1288
:10092B00181C1218B8C294E490605AF0A3F09060AF
:10093B0031E064016008E064026003020A14906015
:10094B005AE0FEA3E0FFC39470EE94174003020A33
:10095B00EB300703020AEBC3EF9470EE94174003DE
:10096B000209F1E4FFFE7D807CBF906036E0F8A3C6
:10097B00E0F9A3E0FAA3E0FB12002EE4FBFA79A85E
:10098B007842120228E4FBFA798078BF12002E908D
:10099B00603A120668906036E0FCA3E0FDA3E0FE2F
:1009AB00A3E0FFE4FBFAF9783F12002E90603612B9
:1009BB00066890603AE0FCA3E0FDA3E0FEA3E0FF35
:1009CB009060461206687F007E007DA07C40120A74
:1009DB00F6E4FBFA7970784212011F12037C9060E7
:1009EB005AEEF0A3EFF0C390605BE0947090605A06
:1009FB00E0941740077417F0A37470F01219747F0A
:100A0B00107E00121922020949906031E060030246
:100A1B000AEB90605AE0FEA3E0FFC394B8EE940B90
:100A2B004003020AEB300703020AEBC3EF94B8EE64
:100A3B00940B4003020AC5E4FFFE7D807CBF9060EF
:100A4B0036E0F8A3E0F9A3E0FAA3E0FB12002EE4F2
:100A5B00FBFA79A87842120228E4FBFA798078BF76
:100A6B0012002E90603A120668906036E0FCA3E00C
:100A7B00FDA3E0FEA3E0FFE4FBFAF9783F12002EA2
:100A8B0090603612066890603AE0FCA3E0FDA3E0AC
:100A9B00FEA3E0FF9060461206687F007E007DA0FB
:100AAB007C40120AF6E4FBFA7970784212011F12AD
:100ABB00037C90605AEEF0A3EFF0C390605BE09480
:100ACB00B890605AE0940B4007740BF0A374B8F025
:100ADB001219741219627F107E00121922020A1D5C
:0B0AEB0012100412111E1216D780F525
:0E179A0042605A00004260581770C107C10833
:10164B007812E24401F278567407F278277417F295
:10165B0018746FF27833E4F218F27819E24401F25D
:10166B007811E24401F27817E24401F27812E24475
:10167B0001F27814E24401F27818E24401F278D3D3
:10168B00E254CFF2E24410F2E254FCF2E24401F2F3
:10169B0090718AE4F090718C740AF07812E2440233
:1016AB00F278577407F278297417F218746FF2787E
:1016BB0037E4F218F27819E24402F278D3E254F3E9
:0C16CB00F2E24404F290718B7409F022EA
:1019620090605AE07837F2A3E018F27817E2440266
:02197200F2225F
:1019740090605AE07833F2A3E018F27817E2440159
:02198400F2224D
:0612300090604712066801
:101236007F527E497D9D7C3A906047E0F8A3E0F9B5
:10124600A3E0FAA3E0FB12011F90604B1206687F31
:10125600CD7ECC7DCC7C3F90604BE0F8A3E0F9A33B
:10126600E0FAA3E0FB1202C5602E402C906031E04C
:1012760064016004E0B4020C9060587417F0A37423
:1012860070F08010906031E0700A906058740BF036
:10129600A374B8F0D208805B7FCD7ECC7DCC7C3F3A
:1012A60090604BE0F8A3E0F9A3E0FAA3E0FB12029A
:1012B600C55040906031E064016004E0B4020B90D8
:1012C6006058740BF0A374B8800F906031E0700C16
:1012D6009060587405F0A374DCF0C208906058E082
:1012E600FEA3E0FFC390605BE09F90605AE09E40E3
:1012F60002D2077FCD7ECC7D2C7C4090604BE0F8FF
:10130600A3E0F9A3E0FAA3E0FB1202C560054003DF
:05131600D29422C294F4
:01131B0022AF
:1016D700E4906042F0A3F0A3120674000000007FBC
:1016E700021217D6E4906042F012152C9060441253
:1016F7000668E47F8C7E0AFDFC906044E0F8A3E076
:10170700F9A3E0FAA3E0FBC3120605400690604385
:10171700E004F0906042E004F0E0C3940A40CA900D
:0B1727006043E0B40A03D29422C29495
:011732002294
:1013EB00906058E0FEA3E0FFD390605BE09F9060BD
:1013FB005AE09E400CA3E024FFF090605AE034FFCB
:10140B00F0906058E0FEA3E0FFC390605BE09F901C
:10141B00605AE09E500CA3E004F0700690605AE016
:10142B0004F0906031E0B4010512197480159060DE
:10143B0031E0B402028009906031E0700612197439
:10144B00121962906031E064016004E0B40217C3CA
:10145B0090605BE094A890605AE0941640047F077C
:10146B00801F7F03801B906031E0701AC390605B1C
:10147B00E0945490605AE0940B40047F0780027F05
:07148B00037E00121922226A
:1017A8004460050000000041600300416002004100
:0717B800600400C109C10A31
:050DA800906047EDF032
:100DAD00E4A3F0A3F0A3F0A3F0906048F0A3F090BB
:100DBD006047E024FFFFE434FFFEC3906049E09FED
:100DCD00EE6480F8906048E06480984003020EDA8B
:100DDD00E490604AF0A3F0906047E024FFFFE43414
:100DED00FFFEA3E0FCA3E0FDC3EF9DFFEE9CFEA381
:100DFD00E0FCA3E0FDC39FEE6480F8EC64809840B6
:100E0D0003020EC6ED2401FFE43CFEEF25E0FFEEEC
:100E1D00338F82F583120475FDACF090604BE025A5
:100E2D00E0FF90604AE0338F82F583120475D39D05
:050E3D00E5F09C40708F
:100E420090604AE0FCA3E0FD25E0FFEC338F82F5E1
:100E520083120475FF90604CE5F0F0A3EFF0ED24EF
:100E620001FFE43CFEEF25E0FFEE338F82F58312B3
:100E72000475FD90604BE025E0FF90604AE0338FFF
:100E820082F583E5F08DF01204AD90604CE0FCA396
:100E9200E0FD90604BE02401FF90604AE03400FEE8
:100EA200EF25E0FFEE338F82F583EC8DF01204AD77
:100EB20090604BE004F06003020DE490604AE004AD
:100EC200F0020DE4906049E004F06003020DBC9072
:080ED2006048E004F0020DBCD1
:010EDA0022F5
:0D000F0078F2E24403F278E3E244C0F2220A
:1017D600E4906000F0A3F0EF24FE601904703090EE
:1017E6007123E054F8F0E0441EF09071227407F083
:1017F6007599188014907123E054F8F0E0441EF0B7
:101806009071227407F07599177869E24448F27F5F
:06181600017E0002192210
:10188E007869E24401F2786BE230E1FAAF93EF75DA
:10189E00F010A4FFE594C4540FFDEF4DFF906000CF
:0A18AE00E5F0F0A3EFF07402F2225F
:1018E0007E007F147D007B017A60791D1206A5E4DD
:1018F000906003F0FE7F14FD7B017A607909120687
:07190000A5E4906002F02253
:1006D1007869E24401F2786BE230E1FA7402F2AF38
:1006E10093EF75F010A4FFE594C4540FFDEF4DFF97
:1006F100906000E5F0F0A3EFF0906000E0FCA3E073
:10070100FDE4120343906005E0F8A3E0F9A3E0FAE9
:10071100A3E0FB12002AE4FBFA79C878421202C571
:100721004031906000E0FCA3E0FDE4120343A80423
:10073100A905AA06AB07906005E0FCA3E0FDA3E0D4
:10074100FEA3E0FF12002AE4FBFA79C87842120204
:10075100C55024906000E0FEA3E0FF906003E02517
:10076100E0241DF582E43460F583EEF0A3EFF09010
:100771006003E004F08036906000E0FEA3E0FF90AB
:100781006002E025E02409F582E43460F583EEF0AF
:10079100A3EFF0906002E004F07E007F147D007B07
:1007A100017A60791D1206A5E4906003F090600261
:0907B100E0C3940A500302085948
:1007BA0090604212067400000000E4906046F0FE69
:1007CA007F14FD7B017A60791D1206A5E49060030F
:1007DA00F07B017A6079097D0A120DA8906046744F
:1007EA0001F0906042E0F8A3E0F9A3E0FAA3E0FB8D
:1007FA00A3E025E02409F582E43460F583E0FEA352
:10080A00E0FFE4FCFDEB2FFFEA3EFEED39FDEC389C
:10081A00FC906042120668906046E004F0E0B40979
:10082A00C1906042E0FCA3E0FDA3E0FEA3E0FF78F4
:10083A0003120616E412033E9060051206689060E1
:0C084A004212067400000000E4906002FE
:0F085600020901906003E0C3940A5003020913E2
:1008650090604212067400000000E4906046F0FEBD
:100875007F14FD7B017A6079091206A5E490600278
:10088500F07B017A60791D7D0A120DA8906046748F
:1008950001F0906042E0F8A3E0F9A3E0FAA3E0FBE1
:1008A500A3E025E0241DF582E43460F583E0FEA392
:1008B500E0FFE4FCFDEB2FFFEA3EFEED39FDEC38F1
:1008C500FC906042120668906046E004F0E0B409CE
:1008D500C1906042E0FCA3E0FDA3E0FEA3E0FF7849
:1008E50003120616E412033E906005120668906036
:1008F5004212067400000000E4906003F090600569
:0E090500E0FCA3E0FDA3E0FEA3E0FF12123031
:08091300E4906000F0A3F02263
:10152C00E4906048F0A312067400000000E49060A0
:10153C0048F012188E906049E0F8A3E0F9A3E0FAA5
:10154C00A3E0FB906000E0FEA3E0FFE4FCFDEB2FCA
:10155C00FFEA3EFEED39FDEC38FC9060491206685E
:10156C00906048E0C394014017A3E0FCA3E0FDA306
:10157C00E0FEA3E0FF78011206169060491206689F
:10158C007F147E00121922906048E004F0E0C394AE
:10159C0003409FE47F0CFEFDFC906049E0F8A3E063
:1015AC00F9A3E0FAA3E0FB1204DAE47B0AFAF9F8F7
:0315BC00020565C0
:1010040090604212067400000000906004E06402E4
:10101400700302111DE4906000F0A3F07F01121729
:10102400D612152C906042120668906004E0705F3E
:101034007FEA7E0BFDFC906042E0F8A3E0F9A3E0B8
:0A104400FAA3E0FBC31206055045B5
:10104E00E4906046F0F012152C906042120668E4AF
:10105E007FEA7E0BFDFC906042E0F8A3E0F9A3E08E
:10106E00FAA3E0FBD31206054006E4906004F022DA
:10107E00906046E004F0E0C3940A40CA90600474A5
:05108E0001F00218E072
:0B109300906004E06401600302111D86
:10109E0020090FD20990605C120674000000001245
:1010AE001996E47F307E75FDFC90605CE0F8A3E05D
:0D10BE00F9A3E0FAA3E0FBC31206054052BF
:1010CB00E4906046F0F012152C906042120668E432
:1010DB007FEA7E0BFDFC906042E0F8A3E0F9A3E011
:1010EB00FAA3E0FBD312060540079060047401F0ED
:1010FB0022906046E004F0E0C3940A40C99060047B
:10110B007402F012194E90605C120674000000001D
:02111B00C20907
:01111D0022AF
:10111E00906004E0703B200A05D20A121986200B5B
:10112E000302122FC20BE4906000F0A3F07F0212B4
:10113E0017D61206D1906058E0FEA3E0FF90605AD9
:10114E00E06E7003A3E06F700302122F1213EB8098
:10115E00E4906004E06401706312193AC20A906070
:10116E0031E064016004E0B40226906058740BF024
:10117E00A374B8F0906058E0FEA3E0FF90605AE0D0
:10118E006E7003A3E06F700302122F1213EB80E454
:10119E00906031E0600302122F9060587405F0A346
:1011AE0074DCF0906058E0FEA3E0FF90605AE06EB1
:1011BE007003A3E06F606A1213EB80E7906004E0A7
:1011CE006402705D12193AC20A906031E0640160E7
:1011DE0004E0B402239060587405F0A374DCF09020
:1011EE006058E0FEA3E0FF90605AE06E7003A3E04B
:1011FE006F602E1213EB80E7906031E070239060E9
:10120E00587402F0A374EEF0906058E0FEA3E0FF75
:10121E0090605AE06E7003A3E06F60051213EB80CE
:01122E00E7D8
:01122F00229C
:0617BF0041606000C10B57
:1019070043A820D2AF75D10178957401F218747687
:0B191700F2789174A0F21874FDF22227
:101986007890E2541FF2E244C0F243A820D2AF227C
:10193A007890E2541FF2E244A0F27892E4F208F2BC
:04194A0053A8DF229D
:03001E0002185C69
:10185C00C0E0C083C082C0D075D000C0007891E2D7
:10186C0030E714E24480F2906060E004F0E0C3944E
:10187C00194004E4F0D20BD000D0D0D082D083D069
:02188C00E03248
:0717C50044605C000000001D
:10181C00E5B154CF42B1789CE254E3F2E24414F2C5
:10182C00E254FCF2E24401F208E24480F2E2442089
:10183C00F278A1743BF2187460F2789EE4F208F22C
:10184C00789CE2541FF2E244A0F253A8BFD2AF221C
:10199600789CE2541FF2E244C0F243A840D2AF2240
:10194E00789CE2541FF2E244A0F2789EE4F208F290
:04195E0053A8BF22A9
:0300210002173390
:10173300C0E0C0F0C083C082C0D075D000C000C07C
:1017430004C005C006C007789DE230E723E2448069
:10175300F290605CE0FCA3E0FDA3E0FEA3E02401C3
:10176300FFE43EFEE43DFDE43CFC90605C12066851
:10177300D007D006D005D004D000D0D0D082D083FB
:05178300D0F0D0E032BF
:0917CC00C103446054FFFFFFFF5C
:1018B80043A901D2AF75D104907105E4F090710489
:1018C8007411F090710174A0F090710074FDF0E053
:0818D800541FF0E044C0F022AF
:0619B100300302C2032214
:01001C0022C1
:03002400020C5C6F
:100C5C00C0E0C0F0C083C082C0D075D000C000C05E
:090C6C0003C004C005C006C00766
:100C7500C205C206907101E020E703020D91E04430
:100C850080F0906053E025E0F0308004E04401F00E
:100C9500906053E05407FFF0BF0704D2028008902C
:100CA5006053E07002C20230026D300053C2009002
:100CB5006051E0FBC394034043906054E0FCA3E023
:100CC500FDA3E0FEA3E0FF7801120629906054120F
:100CD5000668906050E0D39B906054E0FCA3E0FD73
:100CE500A3E0FEA3E040044401800254FEFFEC9023
:100CF5006054120668906050E4F0807BD2058077DE
:100D0500D201906050E004F0E0C3941E4002D20589
:100D1500906051E4F08060906051E004F0E0C3948D
:100D25001E402EA3E06419600ED205906054120691
:100D350074FFFFFFFF8040906054A3E0FDA3E0FE39
:100D4500A3E0FFE4FC906054120668D203D206804B
:100D550026300123C201906051E4F0D2009060502A
:100D6500E0C39403400F906052E004F0E0941A4011
:100D750006D2058002D20520050330060F90605289
:0C0D8500E4F0906050F0A3F0C201C20046
:100D9100D007D006D005D004D003D000D0D0D08267
:070DA100D083D0F0D0E03256
:100027000203E8E86480F8E933E83360110460F01C
:10003700ED33EC337009E8FCE9FDEAFEEBFF22043F
:1000470060DED3EB9FEA9EE99DE8C2E78CF0C2F73A
:1000570095F0400CE8CCF8E9CDF9EACEFAEBCFFB06
:100067001203B385D0F05804700320D5B3E80470A9
:10007700075002B2D50203F292D5EC0460F7E4CC44
:10008700C0E0C398F8603B94186008400DD0E0FBCF
:100097000203CAE4FBFAC9FC8028E830E406E4C995
:1000A700FBE4CAFCE830E305E4C9CACBFCE8540723
:1000B7006010F8C3E913F9EA13FAEB13FBEC13FC2E
:1000C700D8F130F52FC3E49CFCEF9BFFEE9AFEEDD1
:1000D70099FDD0E0FBEF4E4D4C701222DB0302037B
:1000E700EFEC2CFCEF33FFEE33FEED33FDED30E7A5
:1000F700EB0203CAEF2BFFEE3AFEED39FDD0E0FB32
:1001070050130BBB00030203F2ED13FDEE13FEEFDA
:0801170013FFEC13FC0203CA04
:10011F00EC4D6011E8497017ED33EC3304600DE4DA
:10012F00FCFFFEFD22E933E8330470F80203E81206
:10013F0003B358046009E4CC248150062850090207
:10014F0003F22840030203EFC0E0EB4A7044B9808A
:10015F0006D0E0FB0203DEEF4E701CBD8008EBFF04
:10016F00EAFEE9FD80EBE98DF0A4FEE5F00202085E
:10017F00E9CDF9EAFEEBFFEF89F0A4FCE5F0CE89BB
:10018F00F0A42EFFE435F0CD89F0A42DFEE435F078
:10019F008067EF4E7005BD80D780C3EF8BF0A4ACA6
:1001AF00F0EE8BF0A42CFCE435F0F8EF8AF0A42CE1
:1001BF00E5F038FCE433CB8DF0A42CFCE5F03BF8F4
:1001CF00EE8AF0A42CFCE5F038F8E433CF89F0A4E4
:1001DF002CFCE5F038CF3400CE89F0A42FFFE5F0EA
:1001EF003EFEE433C98DF0A42EFEE5F039CD8AF042
:1001FF00A42FFFE5F03EFEE43DFD33D0E0FB5007BA
:10020F000BBB000F0203F2EC2CFCEF33FFEE33FEBF
:06021F00ED33FD0203CAED
:100225000203F2EC5D046005E8590470030203E87B
:100235001203B3580460F6EC4860F2EC7004FDFE5E
:10024500FF22C860DB2481C85009C39860025006AC
:100255000203EF9850CAF582E9294B4A7005AB8233
:100265000203DE75F0007C1A7880C3EF9BEE9AEDF1
:1002750099400DC3EF9BFFEE9AFEED99FDE842F024
:10028500DC23ACF0D0E0FFD0E0FED0E0FDAB822077
:10029500E7101BEB60BAEC2CFCEF33FFEE33FEED01
:1002A50033FD0203CAE803F830E705C0F075F00036
:1002B500EF2FFFEE33FEED33FD40B830E7C280AAE5
:1002C50074F8CC6480CCC86480C8F58204604FC3E0
:1002D500EB9FF5F0EA9E42F0E99D42F0E89C45F07F
:1002E500603C501DE5825FFFE582D313CB5BCBF409
:1002F5002B5582FB50280ABA002409B90020088032
:100305001DE5825BFBE582D313CF5FCFF4C3132FCB
:100315005582FF50090EBE00050DBD00010CC3EB53
:100325009FF5F0EA9E42F0E99D42F0E89C45F060B9
:0903350007CC4820E701B3EC22DB
:10033E0075F020800E75F010800575F0087D007E3A
:10034E00007F003392D530D5031205F7EC33401001
:10035E00EF33FFEE33FEED33FDEC33FCD5F0ED2243
:0E036E00E5F0247EA2D513CC92E7CDCEFF227F
:10037C00EDD2E7CD33EC3392D524814006E4FFFE79
:10038C00FDFC22FCE4CFCECDCC24E0501174FF80D8
:10039C00EDC3CC13CCCD13CDCE13CECF13CF047075
:0703AC00F030D5DE0205F779
:100AF600906042120668E4FFFE7D807C3F90604273
:100B0600E0F8A3E0F9A3E0FAA3E0FB1202C5700641
:100B1600906042020C50906042E0FCA3E0FDA3E02E
:100B2600FEA3E0FF1203FDFBA3E0FCA3E0FDA3E0B0
:100B3600FEA3E0FF1203FDFFB40108E4FFFE7D8083
:100B46007C3F22EF64046029EB64046024EBB4016B
:100B560030E4FFFEFDFC906046E0F8A3E0F9A3E078
:100B6600FAA3E0FB1202C560084006E4FFFEFDFCA6
:100B760022906046120674FFFFFFFF906046020C4B
:100B860050E490604AF0A3F0FFFEFDFC906042E066
:100B9600F8A3E0F9A3E0FAA3E0FB1202C5505F90C8
:100BA6006046E0FCA3E0FDA3E0FEA3E0FF12037CA9
:100BB60090604AEEF0A3EFF0FDCCEECCEC120343CE
:100BC600C8ECC8C9EDC9CAEECACBEFCB906046E007
:100BD600FCA3E0FDA3E0FEA3E0FF12002AE4FBFA7B
:100BE600F9F81202C5708A906042E0FCA3E0FDA30A
:100BF600E0FEA3E0FF1204179060421206689060C0
:100C060042E0FCA3E0FDA3E0FEA3E0FF120F0F907D
:100C16006046E0F8A3E0F9A3E0FAA3E0FB12011FA7
:100C26001214CA90604612066890604BE030E017D6
:100C3600906046E0FCA3E0FDA3E0FEA3E0FF120403
:100C460017906046120668906046E0FCA3E0FDA39C
:060C5600E0FEA3E0FF2216
:1003B300E9D2E7C933E833F892D5EDD2E7CD33EC90
:0703C30033FC5002B2D52209
:1003CA00EC30E7100FBF000C0EBE00080DBD000494
:1003DA000BEB6014A2D5EB13FCED92E7FD2274FF40
:1003EA00FCFDFEFF22E480F8A2D574FF13FC7D8099
:0303FA00E480EFAD
:1003FD00ED33EC33601004700FED547F7005740213
:0A040D0092E0227404220422E4228B
:10041700ED33EC33600A047003BD8004ECB2E7FCF3
:0104270022B2
:1014920033DA929E35B16011377FE5FE39218489B6
:1014A2003AAEC3FF3C1D955B3D6358473E75FDF068
:1014B2003F3172183F800000C2D50203F20203E8F6
:1014C200BD80FA50F30203EFED33EC330460F17B9D
:1014D2003B7AAA79B8783F12011FED33EC3392D5EB
:1014E200247B5011A2D570DB500BED4480240450B4
:1014F20004A2D580CEEFFBEEFAEDF9ECF812037CF4
:10150200EFF582F404FC12034812002EC0829014FC
:10151200927409120437ED33CC33D0F092D525F012
:0A152200A2D57001C313CC13FD2203
:100EDB003E9248DA3ECCCCCD3F2AAAAB4000000074
:100EEB003F8000003F9837F03FB504F33FD744FCF9
:100EFB003E3172173EB172173F0515913EDE5BD93D
:100F0B00D2048002C204EDD2E7F8CD33EC33047087
:100F1B000BBD800592D50203F20203E840FBD3140C
:100F2B0060F2F5F07C3FEE7A00C39496C8948B4048
:100F3B00230AC89469C8941A401A0AC89468C894BA
:100F4B001F40110AC8945AC89425400805F07A002E
:100F5B00CDC2E7CDC0F090604C120668EA2323C0E7
:100F6B00E024EBF582E4340EF58312065812002EC2
:100F7B00ECC0E0EDC0E0EEC0E0EFC0E012063C904C
:100F8B00604C12064C12002AD0E0FBD0E0FAD0E005
:100F9B00F9D0E0B2E7F812022890604C1206689084
:100FAB000EDB740312042890604C12064C12011FC6
:100FBB00D0E0600F24F7F582E4340EF58312065867
:100FCB0012002E90604C120668D0E0C3947FFDE4B3
:100FDB009400FC1203437B187A727931783F12012B
:100FEB001F90604C12064C12002E30040B7BD97AEA
:090FFB005B79DE783E12011F2231
:10042800C0E0EFFBEEFAEDF9ECF812011FD0E0F5B1
:10043800F0EFFBEEFAEDF9ECF812063CA3A3A3A348
:10044800E8C0E0E9C0E0EAC0E0EBC0E0C0F01201BB
:100458001F120658A3A3A3A312002ED0F0D0E0FBCE
:0D046800D0E0FAD0E0F9D0E0F8D5F0D422D1
:1015CB0002091BE493A3F8E493A34003F68001F212
:1015DB0008DFF48029E493A3F85407240CC8C33321
:1015EB00C4540F4420C8834004F456800146F6DFF0
:1015FB00E4800B0102040810204080901788E47EE1
:10160B00019360BCA3FF543F30E509541FFEE493E4
:10161B00A360010ECF54C025E060A840B8E493A3AB
:10162B00FAE493A3F8E493A3C8C582C8CAC583CAD6
:10163B00F0A3C8C582C8CAC583CADFE9DEE780BE8E
:0117D5000013
:10047500BB0110E58229F582E5833AF583E0F5F0C5
:10048500A3E0225009E92582F886F008E622BBFEA2
:100495000AE92582F8E2F5F008E222E5832AF583E8
:0804A500E993F5F0A3E99322AD
:1004AD00F8BB0111E58229F582E5833AF583E8F081
:1004BD00E5F0A3F0225009E92582C8F608A6F0223E
:0D04CD00BBFE09E92582C8F2E5F008F22225
:1004DA00E88FF0A4CC8BF0A42CFCE98EF0A42CFCC1
:1004EA008AF0EDA42CFCEA8EF0A4CDA8F08BF0A43F
:1004FA002DCC3825F0FDE98FF0A42CCD35F0FCEB9E
:10050A008EF0A4FEA9F0EB8FF0A4CFC5F02ECD3962
:0F051A00FEE43CFCEAA42DCE35F0FDE43CFC22CF
:1005290075F008758200EF2FFFEE33FECD33CDCC89
:1005390033CCC58233C5829BED9AEC99E58298400C
:100549000CF582EE9BFEED9AFDEC99FC0FD5F0D6E9
:10055900E4CEFBE4CDFAE4CCF9A88222B800C1B913
:100569000059BA002DEC8BF084CFCECDFCE5F0CB51
:10057900F97818EF2FFFEE33FEED33FDEC33FCEB8A
:1005890033FB10D703994004EB99FB0FD8E5E4F945
:10059900FA227818EF2FFFEE33FEED33FDEC33FC32
:1005A900C933C910D7059BE99A4007EC9BFCE99A26
:1005B900F90FD8E0E4C9FAE4CCFB2275F010EF2F6B
:1005C900FFEE33FEED33FDCC33CCC833C810D7076B
:1005D9009BEC9AE899400AED9BFDEC9AFCE899F8A6
:0E05E9000FD5F0DAE4CDFBE4CCFAE4C8F92239
:0E05F700C3E49FFFE49EFEE49DFDE49CFC2215
:10060500EB9FF5F0EA9E42F0E99D42F0E89C45F04B
:0106150022C2
:10061600E8600FECC313FCED13FDEE13FEEF13FFC2
:03062600D8F122E6
:10062900E8600FEFC333FFEE33FEED33FDEC33FC2F
:03063900D8F122D3
:10063C00E493FC740193FD740293FE740393FF2204
:0C064C00E0F8A3E0F9A3E0FAA3E0FB2231
:10065800E493F8740193F9740293FA740393FB22F8
:0C066800ECF0A3EDF0A3EEF0A3EFF02205
:10067400A8828583F0D083D08212068B12068B1257
:10068400068B12068BE473E493A3C583C5F0C5837C
:10069400C8C582C8F0A3C583C5F0C583C8C582C8D0
:0106A4002233
:1006A500EF4E6012EF60010EEDBB010B89828A836C
:1006B500F0A3DFFCDEFA2289F05007F709DFFCA979
:0C06C500F022BBFEFCF309DFFCA9F022D0
:00000001FF
